Component: ARM Compiler 5.06 update 6 (build 750) Tool: armlink [4d35ed]

==============================================================================

Section Cross References

    startup_stm32g030xx.o(STACK) refers (Special) to heapauxi.o(.text) for __use_two_region_memory
    startup_stm32g030xx.o(HEAP) refers (Special) to heapauxi.o(.text) for __use_two_region_memory
    startup_stm32g030xx.o(RESET) refers (Special) to heapauxi.o(.text) for __use_two_region_memory
    startup_stm32g030xx.o(RESET) refers to startup_stm32g030xx.o(STACK) for __initial_sp
    startup_stm32g030xx.o(RESET) refers to startup_stm32g030xx.o(.text) for Reset_Handler
    startup_stm32g030xx.o(RESET) refers to stm32g0xx_it.o(i.NMI_Handler) for NMI_Handler
    startup_stm32g030xx.o(RESET) refers to stm32g0xx_it.o(i.HardFault_Handler) for HardFault_Handler
    startup_stm32g030xx.o(RESET) refers to stm32g0xx_it.o(i.SVC_Handler) for SVC_Handler
    startup_stm32g030xx.o(RESET) refers to stm32g0xx_it.o(i.PendSV_Handler) for PendSV_Handler
    startup_stm32g030xx.o(RESET) refers to stm32g0xx_it.o(i.SysTick_Handler) for SysTick_Handler
    startup_stm32g030xx.o(RESET) refers to stm32g0xx_it.o(i.FLASH_IRQHandler) for FLASH_IRQHandler
    startup_stm32g030xx.o(RESET) refers to stm32g0xx_it.o(i.DMA1_Channel1_IRQHandler) for DMA1_Channel1_IRQHandler
    startup_stm32g030xx.o(RESET) refers to stm32g0xx_it.o(i.DMA1_Channel2_3_IRQHandler) for DMA1_Channel2_3_IRQHandler
    startup_stm32g030xx.o(RESET) refers to stm32g0xx_it.o(i.DMA1_Ch4_5_DMAMUX1_OVR_IRQHandler) for DMA1_Ch4_5_DMAMUX1_OVR_IRQHandler
    startup_stm32g030xx.o(RESET) refers to stm32g0xx_it.o(i.TIM14_IRQHandler) for TIM14_IRQHandler
    startup_stm32g030xx.o(RESET) refers to stm32g0xx_it.o(i.TIM16_IRQHandler) for TIM16_IRQHandler
    startup_stm32g030xx.o(RESET) refers to stm32g0xx_it.o(i.TIM17_IRQHandler) for TIM17_IRQHandler
    startup_stm32g030xx.o(RESET) refers to stm32g0xx_it.o(i.USART1_IRQHandler) for USART1_IRQHandler
==============================================================================

Removing Unused input sections from the image.

    Removing main.o(.rev16_text), (4 bytes).
    Removing main.o(.revsh_text), (4 bytes).
    Removing stm32g0xx_it.o(.rev16_text), (4 bytes).
    Removing stm32g0xx_it.o(.revsh_text), (4 bytes).
    Removing stm32g0xx_hal_msp.o(.rev16_text), (4 bytes).
    Removing stm32g0xx_hal_msp.o(.revsh_text), (4 bytes).
    Removing stm32g0xx_hal_msp.o(i.HAL_SPI_MspDeInit), (92 bytes).
    Removing stm32g0xx_hal_msp.o(i.HAL_TIM_Base_MspDeInit), (84 bytes).
    Removing stm32g0xx_hal_msp.o(i.HAL_UART_MspDeInit), (88 bytes).
    Removing stm32g0xx_hal_msp.o(i.HAL_UART_MspInit), (188 bytes).
    Removing doing.o(i.read_buff), (2 bytes).
    Removing main_do.o(.rev16_text), (4 bytes).
    Removing main_do.o(.revsh_text), (4 bytes).
    Removing main_do.o(i.flash_read), (6 bytes).
    Removing main_do.o(i.flash_write), (120 bytes).
    Removing main_do.o(.data), (1 bytes).
    Removing run_program.o(.rev16_text), (4 bytes).
    Removing run_program.o(.revsh_text), (4 bytes).
==============================================================================

Image Symbol Table

    Local Symbols

    Symbol Name                              Value     Ov Type        Size  Object(Section)

    ../Drivers/STM32G0xx_HAL_Driver/Src/stm32g0xx_hal.c 0x00000000   Number         0  stm32g0xx_hal.o ABSOLUTE
    ../Drivers/STM32G0xx_HAL_Driver/Src/stm32g0xx_hal_cortex.c 0x00000000   Number         0  stm32g0xx_hal_cortex.o ABSOLUTE
    ../Drivers/STM32G0xx_HAL_Driver/Src/stm32g0xx_hal_dma.c 0x00000000   Number         0  stm32g0xx_hal_dma.o ABSOLUTE
    ../Drivers/STM32G0xx_HAL_Driver/Src/stm32g0xx_hal_dma_ex.c 0x00000000   Number         0  stm32g0xx_hal_dma_ex.o ABSOLUTE
    ../Drivers/STM32G0xx_HAL_Driver/Src/stm32g0xx_hal_exti.c 0x00000000   Number         0  stm32g0xx_hal_exti.o ABSOLUTE
    ../Drivers/STM32G0xx_HAL_Driver/Src/stm32g0xx_hal_flash.c 0x00000000   Number         0  stm32g0xx_hal_flash.o ABSOLUTE
    ../Drivers/STM32G0xx_HAL_Driver/Src/stm32g0xx_hal_flash_ex.c 0x00000000   Number         0  stm32g0xx_hal_flash_ex.o ABSOLUTE
    ../Drivers/STM32G0xx_HAL_Driver/Src/stm32g0xx_hal_gpio.c 0x00000000   Number         0  stm32g0xx_hal_gpio.o ABSOLUTE
    ../Drivers/STM32G0xx_HAL_Driver/Src/stm32g0xx_hal_pwr.c 0x00000000   Number         0  stm32g0xx_hal_pwr.o ABSOLUTE
    ../Drivers/STM32G0xx_HAL_Driver/Src/stm32g0xx_hal_pwr_ex.c 0x00000000   Number         0  stm32g0xx_hal_pwr_ex.o ABSOLUTE
    ../Drivers/STM32G0xx_HAL_Driver/Src/stm32g0xx_hal_rcc.c 0x00000000   Number         0  stm32g0xx_hal_rcc.o ABSOLUTE
    ../Drivers/STM32G0xx_HAL_Driver/Src/stm32g0xx_hal_rcc_ex.c 0x00000000   Number         0  stm32g0xx_hal_rcc_ex.o ABSOLUTE
    ../Drivers/STM32G0xx_HAL_Driver/Src/stm32g0xx_hal_tim.c 0x00000000   Number         0  stm32g0xx_hal_tim.o ABSOLUTE
    ../Drivers/STM32G0xx_HAL_Driver/Src/stm32g0xx_hal_tim_ex.c 0x00000000   Number         0  stm32g0xx_hal_tim_ex.o ABSOLUTE
    ../Drivers/STM32G0xx_HAL_Driver/Src/stm32g0xx_hal_uart.c 0x00000000   Number         0  stm32g0xx_hal_uart.o ABSOLUTE
    ../Drivers/STM32G0xx_HAL_Driver/Src/stm32g0xx_hal_uart_ex.c 0x00000000   Number         0  stm32g0xx_hal_uart_ex.o ABSOLUTE
    ../Drivers/STM32G0xx_HAL_Driver/Src/stm32g0xx_ll_rcc.c 0x00000000   Number         0  stm32g0xx_ll_rcc.o ABSOLUTE
    ../Src/main.c                            0x00000000   Number         0  main.o ABSOLUTE
    ../Src/stm32g0xx_hal_msp.c               0x00000000   Number         0  stm32g0xx_hal_msp.o ABSOLUTE
    ../Src/stm32g0xx_it.c                    0x00000000   Number         0  stm32g0xx_it.o ABSOLUTE
    ../Src/system_stm32g0xx.c                0x00000000   Number         0  system_stm32g0xx_1.o ABSOLUTE
    ../clib/angel/boardlib.s                 0x00000000   Number         0  boardshut.o ABSOLUTE
    ../clib/angel/boardlib.s                 0x00000000   Number         0  boardinit1.o ABSOLUTE
    ../clib/angel/boardlib.s                 0x00000000   Number         0  boardinit2.o ABSOLUTE
    ../clib/angel/boardlib.s                 0x00000000   Number         0  boardinit3.o ABSOLUTE
    ../clib/angel/handlers.s                 0x00000000   Number         0  __scatter_copy.o ABSOLUTE
    ../clib/angel/handlers.s                 0x00000000   Number         0  __scatter_zi.o ABSOLUTE
    ../clib/angel/kernel.s                   0x00000000   Number         0  __rtentry.o ABSOLUTE
    ../clib/angel/kernel.s                   0x00000000   Number         0  rtexit2.o ABSOLUTE
    ../clib/angel/kernel.s                   0x00000000   Number         0  rtexit.o ABSOLUTE
    ../clib/angel/kernel.s                   0x00000000   Number         0  __rtentry2.o ABSOLUTE
    ../clib/angel/kernel.s                   0x00000000   Number         0  __rtentry4.o ABSOLUTE
    ../clib/angel/rt.s                       0x00000000   Number         0  aeabi_idiv0.o ABSOLUTE
    ../clib/angel/rt.s                       0x00000000   Number         0  aeabi_idiv0_sigfpe.o ABSOLUTE
    ../clib/angel/rt.s                       0x00000000   Number         0  rt_div0.o ABSOLUTE
    ../clib/angel/rt.s                       0x00000000   Number         0  rt_raise.o ABSOLUTE
    ../clib/angel/scatterp.s                 0x00000000   Number         0  __scatter.o ABSOLUTE
    ../clib/angel/startup.s                  0x00000000   Number         0  __main.o ABSOLUTE
    ../clib/angel/sys.s                      0x00000000   Number         0  use_no_semi.o ABSOLUTE
    ../clib/angel/sys.s                      0x00000000   Number         0  sys_stackheap_outer.o ABSOLUTE
    ../clib/angel/sys.s                      0x00000000   Number         0  tempstk.o ABSOLUTE
    ../clib/angel/sys.s                      0x00000000   Number         0  libspace.o ABSOLUTE
    ../clib/angel/sys.s                      0x00000000   Number         0  indicate_semi.o ABSOLUTE
    ../clib/angel/sysapp.c                   0x00000000   Number         0  sys_exit.o ABSOLUTE
    ../clib/angel/sysapp.c                   0x00000000   Number         0  sys_wrch.o ABSOLUTE
    ../clib/angel/sysapp.c                   0x00000000   Number         0  sys_command.o ABSOLUTE
    ../clib/armsys.c                         0x00000000   Number         0  argv_veneer.o ABSOLUTE
    ../clib/armsys.c                         0x00000000   Number         0  no_argv.o ABSOLUTE
    ../clib/armsys.c                         0x00000000   Number         0  _get_argv_nomalloc.o ABSOLUTE
    ../clib/division.s                       0x00000000   Number         0  aeabi_sdiv.o ABSOLUTE
    ../clib/division.s                       0x00000000   Number         0  aeabi_sdiv_div0.o ABSOLUTE
    ../clib/heapalloc.c                      0x00000000   Number         0  hrguard.o ABSOLUTE
    ../clib/heapaux.c                        0x00000000   Number         0  heapauxi.o ABSOLUTE
    ../clib/libinit.s                        0x00000000   Number         0  libshutdown.o ABSOLUTE
    ../clib/libinit.s                        0x00000000   Number         0  libinit.o ABSOLUTE
    ../clib/libinit.s                        0x00000000   Number         0  libinit2.o ABSOLUTE
    ../clib/libinit.s                        0x00000000   Number         0  libshutdown2.o ABSOLUTE
    ../clib/memcpset.c                       0x00000000   Number         0  rt_memclr.o ABSOLUTE
    ../clib/signal.c                         0x00000000   Number         0  defsig_fpe_formal.o ABSOLUTE
    ../clib/signal.c                         0x00000000   Number         0  defsig_stak_inner.o ABSOLUTE
    ../clib/signal.c                         0x00000000   Number         0  defsig_fpe_outer.o ABSOLUTE
    ../clib/signal.c                         0x00000000   Number         0  defsig_cppl_inner.o ABSOLUTE
    ../clib/signal.c                         0x00000000   Number         0  __raise.o ABSOLUTE
    ../clib/signal.c                         0x00000000   Number         0  defsig_rtmem_formal.o ABSOLUTE
    ../clib/signal.c                         0x00000000   Number         0  defsig_pvfn_inner.o ABSOLUTE
    ../clib/signal.c                         0x00000000   Number         0  defsig_other.o ABSOLUTE
    ../clib/signal.c                         0x00000000   Number         0  defsig_segv_inner.o ABSOLUTE
    ../clib/signal.c                         0x00000000   Number         0  defsig_general.o ABSOLUTE
    ../clib/signal.c                         0x00000000   Number         0  defsig_rtmem_inner.o ABSOLUTE
    ../clib/signal.c                         0x00000000   Number         0  defsig_rtred_inner.o ABSOLUTE
    ../clib/signal.c                         0x00000000   Number         0  defsig_abrt_inner.o ABSOLUTE
    ../clib/signal.c                         0x00000000   Number         0  defsig_fpe_inner.o ABSOLUTE
    ../clib/signal.c                         0x00000000   Number         0  defsig_exit.o ABSOLUTE
    ../clib/signal.c                         0x00000000   Number         0  defsig_rtmem_outer.o ABSOLUTE
    ../clib/signal.s                         0x00000000   Number         0  defsig.o ABSOLUTE
    ../clib/stdlib.c                         0x00000000   Number         0  exit.o ABSOLUTE
    ../fplib/cfplib/fpinit.c                 0x00000000   Number         0  fpinit.o ABSOLUTE
    ..\Drivers\STM32G0xx_HAL_Driver\Src\stm32g0xx_hal.c 0x00000000   Number         0  stm32g0xx_hal.o ABSOLUTE
    ..\Drivers\STM32G0xx_HAL_Driver\Src\stm32g0xx_hal_cortex.c 0x00000000   Number         0  stm32g0xx_hal_cortex.o ABSOLUTE
    ..\Drivers\STM32G0xx_HAL_Driver\Src\stm32g0xx_hal_dma.c 0x00000000   Number         0  stm32g0xx_hal_dma.o ABSOLUTE
    ..\Drivers\STM32G0xx_HAL_Driver\Src\stm32g0xx_hal_dma_ex.c 0x00000000   Number         0  stm32g0xx_hal_dma_ex.o ABSOLUTE
    ..\Drivers\STM32G0xx_HAL_Driver\Src\stm32g0xx_hal_exti.c 0x00000000   Number         0  stm32g0xx_hal_exti.o ABSOLUTE
    ..\Drivers\STM32G0xx_HAL_Driver\Src\stm32g0xx_hal_flash.c 0x00000000   Number         0  stm32g0xx_hal_flash.o ABSOLUTE
    ..\Drivers\STM32G0xx_HAL_Driver\Src\stm32g0xx_hal_flash_ex.c 0x00000000   Number         0  stm32g0xx_hal_flash_ex.o ABSOLUTE
    ..\Drivers\STM32G0xx_HAL_Driver\Src\stm32g0xx_hal_gpio.c 0x00000000   Number         0  stm32g0xx_hal_gpio.o ABSOLUTE
    ..\Drivers\STM32G0xx_HAL_Driver\Src\stm32g0xx_hal_pwr.c 0x00000000   Number         0  stm32g0xx_hal_pwr.o ABSOLUTE
    ..\Drivers\STM32G0xx_HAL_Driver\Src\stm32g0xx_hal_pwr_ex.c 0x00000000   Number         0  stm32g0xx_hal_pwr_ex.o ABSOLUTE
    ..\Drivers\STM32G0xx_HAL_Driver\Src\stm32g0xx_hal_rcc.c 0x00000000   Number         0  stm32g0xx_hal_rcc.o ABSOLUTE
    ..\Drivers\STM32G0xx_HAL_Driver\Src\stm32g0xx_hal_rcc_ex.c 0x00000000   Number         0  stm32g0xx_hal_rcc_ex.o ABSOLUTE
    ..\Drivers\STM32G0xx_HAL_Driver\Src\stm32g0xx_hal_spi.c 0x00000000   Number         0  stm32g0xx_hal_spi.o ABSOLUTE
    ..\Drivers\STM32G0xx_HAL_Driver\Src\stm32g0xx_hal_tim.c 0x00000000   Number         0  stm32g0xx_hal_tim.o ABSOLUTE
    ..\Drivers\STM32G0xx_HAL_Driver\Src\stm32g0xx_hal_tim_ex.c 0x00000000   Number         0  stm32g0xx_hal_tim_ex.o ABSOLUTE
    ..\Drivers\STM32G0xx_HAL_Driver\Src\stm32g0xx_hal_uart.c 0x00000000   Number         0  stm32g0xx_hal_uart.o ABSOLUTE
    ..\Drivers\STM32G0xx_HAL_Driver\Src\stm32g0xx_hal_uart_ex.c 0x00000000   Number         0  stm32g0xx_hal_uart_ex.o ABSOLUTE
    ..\Src\characters.c                      0x00000000   Number         0  characters.o ABSOLUTE
    ..\Src\define.c                          0x00000000   Number         0  define.o ABSOLUTE
    ..\Src\define_function.c                 0x00000000   Number         0  define_function.o ABSOLUTE
    ..\Src\global_data.c                     0x00000000   Number         0  global_data.o ABSOLUTE
    ..\Src\input_out.c                       0x00000000   Number         0  input_out.o ABSOLUTE
    ..\Src\main.c                            0x00000000   Number         0  main.o ABSOLUTE
    ..\Src\main_do.c                         0x00000000   Number         0  main_do.o ABSOLUTE
    ..\Src\oled.c                            0x00000000   Number         0  oled.o ABSOLUTE
    ..\Src\run_program.c                     0x00000000   Number         0  run_program.o ABSOLUTE
    ..\Src\spi_inner.c                       0x00000000   Number         0  spi_inner.o ABSOLUTE
    ..\Src\spi_outer.c                       0x00000000   Number         0  spi_outer.o ABSOLUTE
    ..\Src\stm32g0xx_hal_msp.c               0x00000000   Number         0  stm32g0xx_hal_msp.o ABSOLUTE
    ..\Src\stm32g0xx_it.c                    0x00000000   Number         0  stm32g0xx_it.o ABSOLUTE
    ..\Src\system_stm32g0xx.c                0x00000000   Number         0  system_stm32g0xx_1.o ABSOLUTE
    ..\Src\time.c                            0x00000000   Number         0  time.o ABSOLUTE
    ..\\Drivers\\STM32G0xx_HAL_Driver\\Src\\stm32g0xx_hal_spi.c 0x00000000   Number         0  stm32g0xx_hal_spi.o ABSOLUTE
    ..\\Src\\define.c                        0x00000000   Number         0  define.o ABSOLUTE
    ..\\Src\\define_function.c               0x00000000   Number         0  define_function.o ABSOLUTE
    ..\\Src\\main_do.c                       0x00000000   Number         0  main_do.o ABSOLUTE
    ..\\Src\\oled.c                          0x00000000   Number         0  oled.o ABSOLUTE
    ..\\Src\\run_program.c                   0x00000000   Number         0  run_program.o ABSOLUTE
    ..\\Src\\spi_inner.c                     0x00000000   Number         0  spi_inner.o ABSOLUTE
    ..\\Src\\spi_outer.c                     0x00000000   Number         0  spi_outer.o ABSOLUTE
    dc.s                                     0x00000000   Number         0  dc.o ABSOLUTE
    doing.c                                  0x00000000   Number         0  doing.o ABSOLUTE
    startup_stm32g030xx.s                    0x00000000   Number         0  startup_stm32g030xx.o ABSOLUTE
    RESET                                    0x08000000   Section      192  startup_stm32g030xx.o(RESET)
    !!!main                                  0x080000c0   Section        8  __main.o(!!!main)
    !!!scatter                               0x080000c8   Section       60  __scatter.o(!!!scatter)
    !!handler_copy                           0x08000104   Section       26  __scatter_copy.o(!!handler_copy)
    !!handler_zi                             0x08000120   Section       28  __scatter_zi.o(!!handler_zi)
    .ARM.Collect$$libinit$$00000000          0x0800013c   Section        2  libinit.o(.ARM.Collect$$libinit$$00000000)
    .ARM.Collect$$libinit$$00000002          0x0800013e   Section        0  libinit2.o(.ARM.Collect$$libinit$$00000002)
    .ARM.Collect$$libinit$$00000004          0x0800013e   Section        0  libinit2.o(.ARM.Collect$$libinit$$00000004)
    .ARM.Collect$$libinit$$0000000A          0x0800013e   Section        0  libinit2.o(.ARM.Collect$$libinit$$0000000A)
    .ARM.Collect$$libinit$$0000000C          0x0800013e   Section        0  libinit2.o(.ARM.Collect$$libinit$$0000000C)
    .ARM.Collect$$libinit$$0000000E          0x0800013e   Section        0  libinit2.o(.ARM.Collect$$libinit$$0000000E)
    .ARM.Collect$$libinit$$00000011          0x0800013e   Section        0  libinit2.o(.ARM.Collect$$libinit$$00000011)
    .ARM.Collect$$libinit$$00000013          0x0800013e   Section        0  libinit2.o(.ARM.Collect$$libinit$$00000013)
    .ARM.Collect$$libinit$$00000015          0x0800013e   Section        0  libinit2.o(.ARM.Collect$$libinit$$00000015)
    .ARM.Collect$$libinit$$00000017          0x0800013e   Section        0  libinit2.o(.ARM.Collect$$libinit$$00000017)
    .ARM.Collect$$libinit$$00000019          0x0800013e   Section        0  libinit2.o(.ARM.Collect$$libinit$$00000019)
    .ARM.Collect$$libinit$$0000001B          0x0800013e   Section        0  libinit2.o(.ARM.Collect$$libinit$$0000001B)
    .ARM.Collect$$libinit$$0000001D          0x0800013e   Section        0  libinit2.o(.ARM.Collect$$libinit$$0000001D)
    .ARM.Collect$$libinit$$0000001F          0x0800013e   Section        0  libinit2.o(.ARM.Collect$$libinit$$0000001F)
    .ARM.Collect$$libinit$$00000021          0x0800013e   Section        0  libinit2.o(.ARM.Collect$$libinit$$00000021)
    .ARM.Collect$$libinit$$00000023          0x0800013e   Section        0  libinit2.o(.ARM.Collect$$libinit$$00000023)
    .ARM.Collect$$libinit$$00000025          0x0800013e   Section        0  libinit2.o(.ARM.Collect$$libinit$$00000025)
    .ARM.Collect$$libinit$$0000002C          0x0800013e   Section        0  libinit2.o(.ARM.Collect$$libinit$$0000002C)
    .ARM.Collect$$libinit$$0000002E          0x0800013e   Section        0  libinit2.o(.ARM.Collect$$libinit$$0000002E)
    .ARM.Collect$$libinit$$00000030          0x0800013e   Section        0  libinit2.o(.ARM.Collect$$libinit$$00000030)
    .ARM.Collect$$libinit$$00000032          0x0800013e   Section        0  libinit2.o(.ARM.Collect$$libinit$$00000032)
    .ARM.Collect$$libinit$$00000033          0x0800013e   Section        2  libinit2.o(.ARM.Collect$$libinit$$00000033)
    .ARM.Collect$$libshutdown$$00000000      0x08000140   Section        2  libshutdown.o(.ARM.Collect$$libshutdown$$00000000)
    .ARM.Collect$$libshutdown$$00000002      0x08000142   Section        0  libshutdown2.o(.ARM.Collect$$libshutdown$$00000002)
    .ARM.Collect$$libshutdown$$00000004      0x08000142   Section        0  libshutdown2.o(.ARM.Collect$$libshutdown$$00000004)
    .ARM.Collect$$libshutdown$$00000007      0x08000142   Section        0  libshutdown2.o(.ARM.Collect$$libshutdown$$00000007)
    .ARM.Collect$$libshutdown$$0000000A      0x08000142   Section        0  libshutdown2.o(.ARM.Collect$$libshutdown$$0000000A)
    .ARM.Collect$$libshutdown$$0000000C      0x08000142   Section        0  libshutdown2.o(.ARM.Collect$$libshutdown$$0000000C)
    .ARM.Collect$$libshutdown$$0000000F      0x08000142   Section        0  libshutdown2.o(.ARM.Collect$$libshutdown$$0000000F)
    .ARM.Collect$$libshutdown$$00000010      0x08000142   Section        2  libshutdown2.o(.ARM.Collect$$libshutdown$$00000010)
    .ARM.Collect$$rtentry$$00000000          0x08000144   Section        0  __rtentry.o(.ARM.Collect$$rtentry$$00000000)
    .ARM.Collect$$rtentry$$00000002          0x08000144   Section        0  __rtentry2.o(.ARM.Collect$$rtentry$$00000002)
    .ARM.Collect$$rtentry$$00000004          0x08000144   Section        6  __rtentry4.o(.ARM.Collect$$rtentry$$00000004)
    .ARM.Collect$$rtentry$$00000009          0x0800014a   Section        0  __rtentry2.o(.ARM.Collect$$rtentry$$00000009)
    .ARM.Collect$$rtentry$$0000000A          0x0800014a   Section        4  __rtentry2.o(.ARM.Collect$$rtentry$$0000000A)
    .ARM.Collect$$rtentry$$0000000C          0x0800014e   Section        0  __rtentry2.o(.ARM.Collect$$rtentry$$0000000C)
    .ARM.Collect$$rtentry$$0000000D          0x0800014e   Section        8  __rtentry2.o(.ARM.Collect$$rtentry$$0000000D)
    .ARM.Collect$$rtexit$$00000000           0x08000156   Section        2  rtexit.o(.ARM.Collect$$rtexit$$00000000)
    .ARM.Collect$$rtexit$$00000002           0x08000158   Section        0  rtexit2.o(.ARM.Collect$$rtexit$$00000002)
    .ARM.Collect$$rtexit$$00000003           0x08000158   Section        4  rtexit2.o(.ARM.Collect$$rtexit$$00000003)
    .ARM.Collect$$rtexit$$00000004           0x0800015c   Section        6  rtexit2.o(.ARM.Collect$$rtexit$$00000004)
    .text                                    0x08000164   Section       56  startup_stm32g030xx.o(.text)
    .text                                    0x0800019c   Section        0  rt_memclr.o(.text)
    .text                                    0x080001dc   Section      346  aeabi_sdiv.o(.text)
    .text                                    0x08000336   Section        0  heapauxi.o(.text)
    .text                                    0x0800033c   Section       62  sys_stackheap_outer.o(.text)
    .text                                    0x0800037a   Section        0  exit.o(.text)
    .text                                    0x0800038c   Section        8  libspace.o(.text)
    .text                                    0x08000394   Section        0  sys_exit.o(.text)
    .text                                    0x080003a0   Section        2  use_no_semi.o(.text)
    .text                                    0x080003a2   Section        0  indicate_semi.o(.text)
    i.DMA1_Ch4_5_DMAMUX1_OVR_IRQHandler      0x080003a4   Section        0  stm32g0xx_it.o(i.DMA1_Ch4_5_DMAMUX1_OVR_IRQHandler)
    i.DMA1_Channel1_IRQHandler               0x080003b4   Section        0  stm32g0xx_it.o(i.DMA1_Channel1_IRQHandler)
    i.DMA1_Channel2_3_IRQHandler             0x080003c4   Section        0  stm32g0xx_it.o(i.DMA1_Channel2_3_IRQHandler)
    i.DMA_CalcDMAMUXChannelBaseAndMask       0x080003dc   Section        0  stm32g0xx_hal_dma.o(i.DMA_CalcDMAMUXChannelBaseAndMask)
    DMA_CalcDMAMUXChannelBaseAndMask         0x080003dd   Thumb Code    44  stm32g0xx_hal_dma.o(i.DMA_CalcDMAMUXChannelBaseAndMask)
    i.DMA_CalcDMAMUXRequestGenBaseAndMask    0x0800040c   Section        0  stm32g0xx_hal_dma.o(i.DMA_CalcDMAMUXRequestGenBaseAndMask)
    DMA_CalcDMAMUXRequestGenBaseAndMask      0x0800040d   Thumb Code    30  stm32g0xx_hal_dma.o(i.DMA_CalcDMAMUXRequestGenBaseAndMask)
    i.DMA_SetConfig                          0x08000430   Section        0  stm32g0xx_hal_dma.o(i.DMA_SetConfig)
    DMA_SetConfig                            0x08000431   Thumb Code    66  stm32g0xx_hal_dma.o(i.DMA_SetConfig)
    i.Error_Handler                          0x08000478   Section        0  main.o(i.Error_Handler)
    i.FLASH_IRQHandler                       0x0800047a   Section        0  stm32g0xx_it.o(i.FLASH_IRQHandler)
    i.FLASH_PageErase                        0x08000484   Section        0  stm32g0xx_hal_flash_ex.o(i.FLASH_PageErase)
    i.GPIO_Init                              0x080004a4   Section        0  define_function.o(i.GPIO_Init)
    i.HAL_DMA_IRQHandler                     0x080004b0   Section        0  stm32g0xx_hal_dma.o(i.HAL_DMA_IRQHandler)
    i.HAL_DMA_Init                           0x08000568   Section        0  stm32g0xx_hal_dma.o(i.HAL_DMA_Init)
    i.HAL_DMA_Start_IT                       0x08000608   Section        0  stm32g0xx_hal_dma.o(i.HAL_DMA_Start_IT)
    i.HAL_FLASH_EndOfOperationCallback       0x08000698   Section        0  stm32g0xx_hal_flash.o(i.HAL_FLASH_EndOfOperationCallback)
    i.HAL_FLASH_IRQHandler                   0x0800069c   Section        0  stm32g0xx_hal_flash.o(i.HAL_FLASH_IRQHandler)
    i.HAL_FLASH_OperationErrorCallback       0x08000758   Section        0  stm32g0xx_hal_flash.o(i.HAL_FLASH_OperationErrorCallback)
    i.HAL_GPIO_Init                          0x0800075c   Section        0  stm32g0xx_hal_gpio.o(i.HAL_GPIO_Init)
    i.HAL_GPIO_WritePin                      0x08000890   Section        0  stm32g0xx_hal_gpio.o(i.HAL_GPIO_WritePin)
    i.HAL_GetTick                            0x0800089c   Section        0  stm32g0xx_hal.o(i.HAL_GetTick)
    i.HAL_IncTick                            0x080008a8   Section        0  stm32g0xx_hal.o(i.HAL_IncTick)
    i.HAL_Init                               0x080008b8   Section        0  stm32g0xx_hal.o(i.HAL_Init)
    i.HAL_InitTick                           0x080008e0   Section        0  stm32g0xx_hal.o(i.HAL_InitTick)
    i.HAL_MspInit                            0x08000928   Section        0  stm32g0xx_hal_msp.o(i.HAL_MspInit)
    i.HAL_NVIC_EnableIRQ                     0x08000964   Section        0  stm32g0xx_hal_cortex.o(i.HAL_NVIC_EnableIRQ)
    i.HAL_NVIC_SetPriority                   0x0800097c   Section        0  stm32g0xx_hal_cortex.o(i.HAL_NVIC_SetPriority)
    i.HAL_PWREx_ControlVoltageScaling        0x08000984   Section        0  stm32g0xx_hal_pwr_ex.o(i.HAL_PWREx_ControlVoltageScaling)
    i.HAL_RCCEx_PeriphCLKConfig              0x080009d0   Section        0  stm32g0xx_hal_rcc_ex.o(i.HAL_RCCEx_PeriphCLKConfig)
    i.HAL_RCC_ClockConfig                    0x08000b30   Section        0  stm32g0xx_hal_rcc.o(i.HAL_RCC_ClockConfig)
    i.HAL_RCC_GetSysClockFreq                0x08000c88   Section        0  stm32g0xx_hal_rcc.o(i.HAL_RCC_GetSysClockFreq)
    i.HAL_RCC_OscConfig                      0x08000d14   Section        0  stm32g0xx_hal_rcc.o(i.HAL_RCC_OscConfig)
    i.HAL_SPI_ErrorCallback                  0x080010ec   Section        0  stm32g0xx_hal_spi.o(i.HAL_SPI_ErrorCallback)
    i.HAL_SPI_Init                           0x080010ee   Section        0  stm32g0xx_hal_spi.o(i.HAL_SPI_Init)
    i.HAL_SPI_MspInit                        0x080011a8   Section        0  stm32g0xx_hal_msp.o(i.HAL_SPI_MspInit)
    i.HAL_SPI_RxCpltCallback                 0x0800134c   Section        0  stm32g0xx_hal_spi.o(i.HAL_SPI_RxCpltCallback)
    i.HAL_SPI_RxHalfCpltCallback             0x0800134e   Section        0  stm32g0xx_hal_spi.o(i.HAL_SPI_RxHalfCpltCallback)
    i.HAL_SPI_TransmitReceive_DMA            0x08001350   Section        0  stm32g0xx_hal_spi.o(i.HAL_SPI_TransmitReceive_DMA)
    i.HAL_SPI_Transmit_DMA                   0x0800150c   Section        0  stm32g0xx_hal_spi.o(i.HAL_SPI_Transmit_DMA)
    i.HAL_SPI_TxCpltCallback                 0x08001614   Section        0  main.o(i.HAL_SPI_TxCpltCallback)
    i.HAL_SPI_TxHalfCpltCallback             0x08001620   Section        0  stm32g0xx_hal_spi.o(i.HAL_SPI_TxHalfCpltCallback)
    i.HAL_SPI_TxRxCpltCallback               0x08001622   Section        0  stm32g0xx_hal_spi.o(i.HAL_SPI_TxRxCpltCallback)
    i.HAL_SPI_TxRxHalfCpltCallback           0x08001624   Section        0  stm32g0xx_hal_spi.o(i.HAL_SPI_TxRxHalfCpltCallback)
    i.HAL_SYSTICK_Config                     0x08001628   Section        0  stm32g0xx_hal_cortex.o(i.HAL_SYSTICK_Config)
    i.HAL_TIMEx_Break2Callback               0x08001658   Section        0  stm32g0xx_hal_tim_ex.o(i.HAL_TIMEx_Break2Callback)
    i.HAL_TIMEx_BreakCallback                0x0800165a   Section        0  stm32g0xx_hal_tim_ex.o(i.HAL_TIMEx_BreakCallback)
    i.HAL_TIMEx_CommutCallback               0x0800165c   Section        0  stm32g0xx_hal_tim_ex.o(i.HAL_TIMEx_CommutCallback)
    i.HAL_TIM_Base_Init                      0x0800165e   Section        0  stm32g0xx_hal_tim.o(i.HAL_TIM_Base_Init)
    i.HAL_TIM_Base_MspInit                   0x08001694   Section        0  stm32g0xx_hal_msp.o(i.HAL_TIM_Base_MspInit)
    i.HAL_TIM_Base_Start_IT                  0x08001718   Section        0  stm32g0xx_hal_tim.o(i.HAL_TIM_Base_Start_IT)
    i.HAL_TIM_IC_CaptureCallback             0x08001744   Section        0  stm32g0xx_hal_tim.o(i.HAL_TIM_IC_CaptureCallback)
    i.HAL_TIM_IRQHandler                     0x08001748   Section        0  stm32g0xx_hal_tim.o(i.HAL_TIM_IRQHandler)
    i.HAL_TIM_OC_DelayElapsedCallback        0x080018cc   Section        0  stm32g0xx_hal_tim.o(i.HAL_TIM_OC_DelayElapsedCallback)
    i.HAL_TIM_PWM_PulseFinishedCallback      0x080018ce   Section        0  stm32g0xx_hal_tim.o(i.HAL_TIM_PWM_PulseFinishedCallback)
    i.HAL_TIM_PeriodElapsedCallback          0x080018d0   Section        0  main.o(i.HAL_TIM_PeriodElapsedCallback)
    i.HAL_TIM_TriggerCallback                0x080018d2   Section        0  stm32g0xx_hal_tim.o(i.HAL_TIM_TriggerCallback)
    i.HardFault_Handler                      0x080018d4   Section        0  stm32g0xx_it.o(i.HardFault_Handler)
    i.IO_init                                0x080018d8   Section        0  define_function.o(i.IO_init)
    i.LTIME_init                             0x08001910   Section        0  time.o(i.LTIME_init)
    i.LTime_init_add                         0x08001940   Section        0  time.o(i.LTime_init_add)
    i.MX_DMA_Init                            0x08001994   Section        0  spi_inner.o(i.MX_DMA_Init)
    i.MX_GPIO_Init                           0x080019dc   Section        0  main.o(i.MX_GPIO_Init)
    MX_GPIO_Init                             0x080019dd   Thumb Code    74  main.o(i.MX_GPIO_Init)
    i.MX_SPI1_Init                           0x08001a2c   Section        0  spi_inner.o(i.MX_SPI1_Init)
    i.MX_SPI2_Init                           0x08001a78   Section        0  spi_inner.o(i.MX_SPI2_Init)
    i.NMI_Handler                            0x08001ac4   Section        0  stm32g0xx_it.o(i.NMI_Handler)
    i.OLED_Clear                             0x08001ac6   Section        0  oled.o(i.OLED_Clear)
    i.OLED_Coord                             0x08001b02   Section        0  oled.o(i.OLED_Coord)
    OLED_Coord                               0x08001b03   Thumb Code    30  oled.o(i.OLED_Coord)
    i.OLED_GPIO_Init                         0x08001b20   Section        0  define_function.o(i.OLED_GPIO_Init)
    i.OLED_Init                              0x08001bec   Section        0  oled.o(i.OLED_Init)
    i.OLED_Show                              0x08001d18   Section        0  oled.o(i.OLED_Show)
    i.PendSV_Handler                         0x08001d9c   Section        0  stm32g0xx_it.o(i.PendSV_Handler)
    i.SPI_DMAError                           0x08001d9e   Section        0  stm32g0xx_hal_spi.o(i.SPI_DMAError)
    SPI_DMAError                             0x08001d9f   Thumb Code    34  stm32g0xx_hal_spi.o(i.SPI_DMAError)
    i.SPI_DMAHalfReceiveCplt                 0x08001dc0   Section        0  stm32g0xx_hal_spi.o(i.SPI_DMAHalfReceiveCplt)
    SPI_DMAHalfReceiveCplt                   0x08001dc1   Thumb Code    10  stm32g0xx_hal_spi.o(i.SPI_DMAHalfReceiveCplt)
    i.SPI_DMAHalfTransmitCplt                0x08001dca   Section        0  stm32g0xx_hal_spi.o(i.SPI_DMAHalfTransmitCplt)
    SPI_DMAHalfTransmitCplt                  0x08001dcb   Thumb Code    10  stm32g0xx_hal_spi.o(i.SPI_DMAHalfTransmitCplt)
    i.SPI_DMAHalfTransmitReceiveCplt         0x08001dd4   Section        0  stm32g0xx_hal_spi.o(i.SPI_DMAHalfTransmitReceiveCplt)
    SPI_DMAHalfTransmitReceiveCplt           0x08001dd5   Thumb Code    10  stm32g0xx_hal_spi.o(i.SPI_DMAHalfTransmitReceiveCplt)
    i.SPI_DMAReceiveCplt                     0x08001dde   Section        0  stm32g0xx_hal_spi.o(i.SPI_DMAReceiveCplt)
    SPI_DMAReceiveCplt                       0x08001ddf   Thumb Code    88  stm32g0xx_hal_spi.o(i.SPI_DMAReceiveCplt)
    i.SPI_DMATransmitCplt                    0x08001e36   Section        0  stm32g0xx_hal_spi.o(i.SPI_DMATransmitCplt)
    SPI_DMATransmitCplt                      0x08001e37   Thumb Code   104  stm32g0xx_hal_spi.o(i.SPI_DMATransmitCplt)
    i.SPI_DMATransmitReceiveCplt             0x08001e9e   Section        0  stm32g0xx_hal_spi.o(i.SPI_DMATransmitReceiveCplt)
    SPI_DMATransmitReceiveCplt               0x08001e9f   Thumb Code    94  stm32g0xx_hal_spi.o(i.SPI_DMATransmitReceiveCplt)
    i.SPI_EndRxTransaction                   0x08001efc   Section        0  stm32g0xx_hal_spi.o(i.SPI_EndRxTransaction)
    SPI_EndRxTransaction                     0x08001efd   Thumb Code   120  stm32g0xx_hal_spi.o(i.SPI_EndRxTransaction)
    i.SPI_EndRxTxTransaction                 0x08001f74   Section        0  stm32g0xx_hal_spi.o(i.SPI_EndRxTxTransaction)
    SPI_EndRxTxTransaction                   0x08001f75   Thumb Code    76  stm32g0xx_hal_spi.o(i.SPI_EndRxTxTransaction)
    i.SPI_WaitFifoStateUntilTimeout          0x08001fc0   Section        0  stm32g0xx_hal_spi.o(i.SPI_WaitFifoStateUntilTimeout)
    SPI_WaitFifoStateUntilTimeout            0x08001fc1   Thumb Code   144  stm32g0xx_hal_spi.o(i.SPI_WaitFifoStateUntilTimeout)
    i.SPI_WaitFlagStateUntilTimeout          0x08002050   Section        0  stm32g0xx_hal_spi.o(i.SPI_WaitFlagStateUntilTimeout)
    SPI_WaitFlagStateUntilTimeout            0x08002051   Thumb Code   140  stm32g0xx_hal_spi.o(i.SPI_WaitFlagStateUntilTimeout)
    i.SPI_Write                              0x080020dc   Section        0  oled.o(i.SPI_Write)
    SPI_Write                                0x080020dd   Thumb Code    56  oled.o(i.SPI_Write)
    i.SPI_Write_command                      0x08002118   Section        0  oled.o(i.SPI_Write_command)
    SPI_Write_command                        0x08002119   Thumb Code    46  oled.o(i.SPI_Write_command)
    i.SPI_Write_data                         0x0800214c   Section        0  oled.o(i.SPI_Write_data)
    SPI_Write_data                           0x0800214d   Thumb Code    40  oled.o(i.SPI_Write_data)
    i.SVC_Handler                            0x08002178   Section        0  stm32g0xx_it.o(i.SVC_Handler)
    i.SysTick_Handler                        0x0800217a   Section        0  stm32g0xx_it.o(i.SysTick_Handler)
    i.SystemClock_Config                     0x0800218a   Section        0  main.o(i.SystemClock_Config)
    i.SystemInit                             0x080021e8   Section        0  system_stm32g0xx_1.o(i.SystemInit)
    i.TIM14_IRQHandler                       0x080021f8   Section        0  stm32g0xx_it.o(i.TIM14_IRQHandler)
    i.TIM16_IRQHandler                       0x08002208   Section        0  stm32g0xx_it.o(i.TIM16_IRQHandler)
    i.TIM17_IRQHandler                       0x08002218   Section        0  stm32g0xx_it.o(i.TIM17_IRQHandler)
    i.TIME_init                              0x08002228   Section        0  time.o(i.TIME_init)
    i.TIM_Base_SetConfig                     0x08002258   Section        0  stm32g0xx_hal_tim.o(i.TIM_Base_SetConfig)
    i.USART1_IRQHandler                      0x080022d4   Section        0  stm32g0xx_it.o(i.USART1_IRQHandler)
    i.USART2_IRQHandler                      0x080022d6   Section        0  stm32g0xx_it.o(i.USART2_IRQHandler)
    i.__NVIC_SetPriority                     0x080022d8   Section        0  stm32g0xx_hal_cortex.o(i.__NVIC_SetPriority)
    __NVIC_SetPriority                       0x080022d9   Thumb Code    60  stm32g0xx_hal_cortex.o(i.__NVIC_SetPriority)
    i.delay_ms                               0x0800231c   Section        0  time.o(i.delay_ms)
    i.led_twinkle                            0x08002334   Section        0  main_do.o(i.led_twinkle)
    i.main                                   0x08002348   Section        0  main.o(i.main)
    i.num_pow                                0x08002588   Section        0  oled.o(i.num_pow)
    i.time_init_add                          0x0800259c   Section        0  time.o(i.time_init_add)
    .constdata                               0x080025e8   Section      760  characters.o(.constdata)
    .constdata                               0x080028e0   Section       64  system_stm32g0xx_1.o(.constdata)
    .data                                    0x20000000   Section        2  main.o(.data)
    .data                                    0x20000002   Section        1  main_do.o(.data)
    .data                                    0x20000004   Section       20  time.o(.data)
    .data                                    0x20000018   Section        1  global_data.o(.data)
    .data                                    0x2000001c   Section        4  global_data.o(.data)
    .data                                    0x20000020   Section        4  global_data.o(.data)
    .data                                    0x20000024   Section       12  stm32g0xx_hal.o(.data)
    .data                                    0x20000030   Section        4  system_stm32g0xx_1.o(.data)
    .bss                                     0x20000034   Section      392  main.o(.bss)
    .bss                                     0x200001bc   Section       92  main.o(.bss)
    .bss                                     0x20000218   Section       92  main.o(.bss)
    .bss                                     0x20000274   Section       92  main.o(.bss)
    .bss                                     0x200002d0   Section       92  main.o(.bss)
    .bss                                     0x2000032c   Section       16  time.o(.bss)
    .bss                                     0x2000033c   Section       16  time.o(.bss)
    .bss                                     0x2000034c   Section       16  time.o(.bss)
    .bss                                     0x2000035c   Section       16  time.o(.bss)
    .bss                                     0x2000036c   Section       16  time.o(.bss)
    .bss                                     0x2000037c   Section      168  global_data.o(.bss)
    .bss                                     0x20000424   Section       24  stm32g0xx_hal_flash.o(.bss)
    .bss                                     0x2000043c   Section       96  libspace.o(.bss)
    HEAP                                     0x200004a0   Section      512  startup_stm32g030xx.o(HEAP)
    Heap_Mem                                 0x200004a0   Data         512  startup_stm32g030xx.o(HEAP)
    STACK                                    0x200006a0   Section     1024  startup_stm32g030xx.o(STACK)
    Stack_Mem                                0x200006a0   Data        1024  startup_stm32g030xx.o(STACK)
    __initial_sp                             0x20000aa0   Data           0  startup_stm32g030xx.o(STACK)

    Global Symbols

    Symbol Name                              Value     Ov Type        Size  Object(Section)

    BuildAttributes$$THM_ISAv3M$S$PE$A:L22$X:L11$S22$IEEE1$IW$USESV6$~STKCKD$USESV7$~SHL$OSPACE$ROPI$EBA8$UX$STANDARDLIB$REQ8$PRES8$EABIv2 0x00000000   Number         0  anon$$obj.o ABSOLUTE
    __ARM_use_no_argv                        0x00000000   Number         0  main.o ABSOLUTE
    __ARM_exceptions_init                     - Undefined Weak Reference
    __alloca_initialize                       - Undefined Weak Reference
    __arm_preinit_                            - Undefined Weak Reference
    __cpp_initialize__aeabi_                  - Undefined Weak Reference
    __cxa_finalize                            - Undefined Weak Reference
    __rt_locale                               - Undefined Weak Reference
    __sigvec_lookup                           - Undefined Weak Reference
    _atexit_init                              - Undefined Weak Reference
    _call_atexit_fns                          - Undefined Weak Reference
    _clock_init                               - Undefined Weak Reference
    _fp_trap_init                             - Undefined Weak Reference
    _fp_trap_shutdown                         - Undefined Weak Reference
    _get_lc_collate                           - Undefined Weak Reference
    _get_lc_ctype                             - Undefined Weak Reference
    _get_lc_monetary                          - Undefined Weak Reference
    _get_lc_numeric                           - Undefined Weak Reference
    _get_lc_time                              - Undefined Weak Reference
    _getenv_init                              - Undefined Weak Reference
    _handle_redirection                       - Undefined Weak Reference
    _init_alloc                               - Undefined Weak Reference
    _init_user_alloc                          - Undefined Weak Reference
    _initio                                   - Undefined Weak Reference
    _rand_init                                - Undefined Weak Reference
    _signal_finish                            - Undefined Weak Reference
    _signal_init                              - Undefined Weak Reference
    _terminate_alloc                          - Undefined Weak Reference
    _terminate_user_alloc                     - Undefined Weak Reference
    _terminateio                              - Undefined Weak Reference
    __Vectors_Size                           0x000000c0   Number         0  startup_stm32g030xx.o ABSOLUTE
    __Vectors                                0x08000000   Data           4  startup_stm32g030xx.o(RESET)
    __Vectors_End                            0x080000c0   Data           0  startup_stm32g030xx.o(RESET)
    __main                                   0x080000c1   Thumb Code     8  __main.o(!!!main)
    __scatterload                            0x080000c9   Thumb Code     0  __scatter.o(!!!scatter)
    __scatterload_rt2                        0x080000c9   Thumb Code    52  __scatter.o(!!!scatter)
    __scatterload_rt2_thumb_only             0x080000c9   Thumb Code     0  __scatter.o(!!!scatter)
    __scatterload_null                       0x080000d9   Thumb Code     0  __scatter.o(!!!scatter)
    __scatterload_copy                       0x08000105   Thumb Code    26  __scatter_copy.o(!!handler_copy)
    __scatterload_zeroinit                   0x08000121   Thumb Code    28  __scatter_zi.o(!!handler_zi)
    __rt_lib_init                            0x0800013d   Thumb Code     0  libinit.o(.ARM.Collect$$libinit$$00000000)
    __rt_lib_init_alloca_1                   0x0800013f   Thumb Code     0  libinit2.o(.ARM.Collect$$libinit$$0000002E)
    __rt_lib_init_argv_1                     0x0800013f   Thumb Code     0  libinit2.o(.ARM.Collect$$libinit$$0000002C)
    __rt_lib_init_atexit_1                   0x0800013f   Thumb Code     0  libinit2.o(.ARM.Collect$$libinit$$0000001B)
    __rt_lib_init_clock_1                    0x0800013f   Thumb Code     0  libinit2.o(.ARM.Collect$$libinit$$00000021)
    __rt_lib_init_cpp_1                      0x0800013f   Thumb Code     0  libinit2.o(.ARM.Collect$$libinit$$00000032)
    __rt_lib_init_exceptions_1               0x0800013f   Thumb Code     0  libinit2.o(.ARM.Collect$$libinit$$00000030)
    __rt_lib_init_fp_1                       0x0800013f   Thumb Code     0  libinit2.o(.ARM.Collect$$libinit$$00000002)
    __rt_lib_init_fp_trap_1                  0x0800013f   Thumb Code     0  libinit2.o(.ARM.Collect$$libinit$$0000001F)
    __rt_lib_init_getenv_1                   0x0800013f   Thumb Code     0  libinit2.o(.ARM.Collect$$libinit$$00000023)
    __rt_lib_init_heap_1                     0x0800013f   Thumb Code     0  libinit2.o(.ARM.Collect$$libinit$$0000000A)
    __rt_lib_init_lc_collate_1               0x0800013f   Thumb Code     0  libinit2.o(.ARM.Collect$$libinit$$00000011)
    __rt_lib_init_lc_ctype_1                 0x0800013f   Thumb Code     0  libinit2.o(.ARM.Collect$$libinit$$00000013)
    __rt_lib_init_lc_monetary_1              0x0800013f   Thumb Code     0  libinit2.o(.ARM.Collect$$libinit$$00000015)
    __rt_lib_init_lc_numeric_1               0x0800013f   Thumb Code     0  libinit2.o(.ARM.Collect$$libinit$$00000017)
    __rt_lib_init_lc_time_1                  0x0800013f   Thumb Code     0  libinit2.o(.ARM.Collect$$libinit$$00000019)
    __rt_lib_init_preinit_1                  0x0800013f   Thumb Code     0  libinit2.o(.ARM.Collect$$libinit$$00000004)
    __rt_lib_init_rand_1                     0x0800013f   Thumb Code     0  libinit2.o(.ARM.Collect$$libinit$$0000000E)
    __rt_lib_init_return                     0x0800013f   Thumb Code     0  libinit2.o(.ARM.Collect$$libinit$$00000033)
    __rt_lib_init_signal_1                   0x0800013f   Thumb Code     0  libinit2.o(.ARM.Collect$$libinit$$0000001D)
    __rt_lib_init_stdio_1                    0x0800013f   Thumb Code     0  libinit2.o(.ARM.Collect$$libinit$$00000025)
    __rt_lib_init_user_alloc_1               0x0800013f   Thumb Code     0  libinit2.o(.ARM.Collect$$libinit$$0000000C)
    __rt_lib_shutdown                        0x08000141   Thumb Code     0  libshutdown.o(.ARM.Collect$$libshutdown$$00000000)
    __rt_lib_shutdown_cpp_1                  0x08000143   Thumb Code     0  libshutdown2.o(.ARM.Collect$$libshutdown$$00000002)
    __rt_lib_shutdown_fp_trap_1              0x08000143   Thumb Code     0  libshutdown2.o(.ARM.Collect$$libshutdown$$00000007)
    __rt_lib_shutdown_heap_1                 0x08000143   Thumb Code     0  libshutdown2.o(.ARM.Collect$$libshutdown$$0000000F)
    __rt_lib_shutdown_return                 0x08000143   Thumb Code     0  libshutdown2.o(.ARM.Collect$$libshutdown$$00000010)
    __rt_lib_shutdown_signal_1               0x08000143   Thumb Code     0  libshutdown2.o(.ARM.Collect$$libshutdown$$0000000A)
    __rt_lib_shutdown_stdio_1                0x08000143   Thumb Code     0  libshutdown2.o(.ARM.Collect$$libshutdown$$00000004)
    __rt_lib_shutdown_user_alloc_1           0x08000143   Thumb Code     0  libshutdown2.o(.ARM.Collect$$libshutdown$$0000000C)
    __rt_entry                               0x08000145   Thumb Code     0  __rtentry.o(.ARM.Collect$$rtentry$$00000000)
    __rt_entry_presh_1                       0x08000145   Thumb Code     0  __rtentry2.o(.ARM.Collect$$rtentry$$00000002)
    __rt_entry_sh                            0x08000145   Thumb Code     0  __rtentry4.o(.ARM.Collect$$rtentry$$00000004)
    __rt_entry_li                            0x0800014b   Thumb Code     0  __rtentry2.o(.ARM.Collect$$rtentry$$0000000A)
    __rt_entry_postsh_1                      0x0800014b   Thumb Code     0  __rtentry2.o(.ARM.Collect$$rtentry$$00000009)
    __rt_entry_main                          0x0800014f   Thumb Code     0  __rtentry2.o(.ARM.Collect$$rtentry$$0000000D)
    __rt_entry_postli_1                      0x0800014f   Thumb Code     0  __rtentry2.o(.ARM.Collect$$rtentry$$0000000C)
    __rt_exit                                0x08000157   Thumb Code     0  rtexit.o(.ARM.Collect$$rtexit$$00000000)
    __rt_exit_ls                             0x08000159   Thumb Code     0  rtexit2.o(.ARM.Collect$$rtexit$$00000003)
    __rt_exit_prels_1                        0x08000159   Thumb Code     0  rtexit2.o(.ARM.Collect$$rtexit$$00000002)
    __rt_exit_exit                           0x0800015d   Thumb Code     0  rtexit2.o(.ARM.Collect$$rtexit$$00000004)
    Reset_Handler                            0x08000165   Thumb Code     8  startup_stm32g030xx.o(.text)
    ADC1_IRQHandler                          0x08000177   Thumb Code     0  startup_stm32g030xx.o(.text)
    EXTI0_1_IRQHandler                       0x08000177   Thumb Code     0  startup_stm32g030xx.o(.text)
    EXTI2_3_IRQHandler                       0x08000177   Thumb Code     0  startup_stm32g030xx.o(.text)
    EXTI4_15_IRQHandler                      0x08000177   Thumb Code     0  startup_stm32g030xx.o(.text)
    I2C1_IRQHandler                          0x08000177   Thumb Code     0  startup_stm32g030xx.o(.text)
    I2C2_IRQHandler                          0x08000177   Thumb Code     0  startup_stm32g030xx.o(.text)
    RCC_IRQHandler                           0x08000177   Thumb Code     0  startup_stm32g030xx.o(.text)
    RTC_TAMP_IRQHandler                      0x08000177   Thumb Code     0  startup_stm32g030xx.o(.text)
    SPI1_IRQHandler                          0x08000177   Thumb Code     0  startup_stm32g030xx.o(.text)
    SPI2_IRQHandler                          0x08000177   Thumb Code     0  startup_stm32g030xx.o(.text)
    TIM1_BRK_UP_TRG_COM_IRQHandler           0x08000177   Thumb Code     0  startup_stm32g030xx.o(.text)
    TIM1_CC_IRQHandler                       0x08000177   Thumb Code     0  startup_stm32g030xx.o(.text)
    TIM3_IRQHandler                          0x08000177   Thumb Code     0  startup_stm32g030xx.o(.text)
    WWDG_IRQHandler                          0x08000177   Thumb Code     0  startup_stm32g030xx.o(.text)
    __user_initial_stackheap                 0x08000179   Thumb Code     0  startup_stm32g030xx.o(.text)
    _memset_w                                0x0800019d   Thumb Code    26  rt_memclr.o(.text)
    _memset                                  0x080001b7   Thumb Code    30  rt_memclr.o(.text)
    __aeabi_memclr                           0x080001d5   Thumb Code     4  rt_memclr.o(.text)
    __rt_memclr                              0x080001d5   Thumb Code     0  rt_memclr.o(.text)
    __aeabi_memclr4                          0x080001d9   Thumb Code     0  rt_memclr.o(.text)
    __aeabi_memclr8                          0x080001d9   Thumb Code     0  rt_memclr.o(.text)
    __rt_memclr_w                            0x080001d9   Thumb Code     4  rt_memclr.o(.text)
    __aeabi_uidiv                            0x080001dd   Thumb Code     0  aeabi_sdiv.o(.text)
    __aeabi_uidivmod                         0x080001dd   Thumb Code    20  aeabi_sdiv.o(.text)
    __aeabi_idiv                             0x080001f1   Thumb Code     0  aeabi_sdiv.o(.text)
    __aeabi_idivmod                          0x080001f1   Thumb Code   326  aeabi_sdiv.o(.text)
    __use_two_region_memory                  0x08000337   Thumb Code     2  heapauxi.o(.text)
    __rt_heap_escrow$2region                 0x08000339   Thumb Code     2  heapauxi.o(.text)
    __rt_heap_expand$2region                 0x0800033b   Thumb Code     2  heapauxi.o(.text)
    __user_setup_stackheap                   0x0800033d   Thumb Code    62  sys_stackheap_outer.o(.text)
    exit                                     0x0800037b   Thumb Code    16  exit.o(.text)
    __user_libspace                          0x0800038d   Thumb Code     8  libspace.o(.text)
    __user_perproc_libspace                  0x0800038d   Thumb Code     0  libspace.o(.text)
    __user_perthread_libspace                0x0800038d   Thumb Code     0  libspace.o(.text)
    _sys_exit                                0x08000395   Thumb Code     8  sys_exit.o(.text)
    __I$use$semihosting                      0x080003a1   Thumb Code     0  use_no_semi.o(.text)
    __use_no_semihosting_swi                 0x080003a1   Thumb Code     2  use_no_semi.o(.text)
    __semihosting_library_function           0x080003a3   Thumb Code     0  indicate_semi.o(.text)
    DMA1_Ch4_5_DMAMUX1_OVR_IRQHandler        0x080003a5   Thumb Code    10  stm32g0xx_it.o(i.DMA1_Ch4_5_DMAMUX1_OVR_IRQHandler)
    DMA1_Channel1_IRQHandler                 0x080003b5   Thumb Code    10  stm32g0xx_it.o(i.DMA1_Channel1_IRQHandler)
    DMA1_Channel2_3_IRQHandler               0x080003c5   Thumb Code    16  stm32g0xx_it.o(i.DMA1_Channel2_3_IRQHandler)
    Error_Handler                            0x08000479   Thumb Code     2  main.o(i.Error_Handler)
    FLASH_IRQHandler                         0x0800047b   Thumb Code     8  stm32g0xx_it.o(i.FLASH_IRQHandler)
    FLASH_PageErase                          0x08000485   Thumb Code    22  stm32g0xx_hal_flash_ex.o(i.FLASH_PageErase)
    GPIO_Init                                0x080004a5   Thumb Code    12  define_function.o(i.GPIO_Init)
    HAL_DMA_IRQHandler                       0x080004b1   Thumb Code   180  stm32g0xx_hal_dma.o(i.HAL_DMA_IRQHandler)
    HAL_DMA_Init                             0x08000569   Thumb Code   152  stm32g0xx_hal_dma.o(i.HAL_DMA_Init)
    HAL_DMA_Start_IT                         0x08000609   Thumb Code   138  stm32g0xx_hal_dma.o(i.HAL_DMA_Start_IT)
    HAL_FLASH_EndOfOperationCallback         0x08000699   Thumb Code     2  stm32g0xx_hal_flash.o(i.HAL_FLASH_EndOfOperationCallback)
    HAL_FLASH_IRQHandler                     0x0800069d   Thumb Code   170  stm32g0xx_hal_flash.o(i.HAL_FLASH_IRQHandler)
    HAL_FLASH_OperationErrorCallback         0x08000759   Thumb Code     2  stm32g0xx_hal_flash.o(i.HAL_FLASH_OperationErrorCallback)
    HAL_GPIO_Init                            0x0800075d   Thumb Code   290  stm32g0xx_hal_gpio.o(i.HAL_GPIO_Init)
    HAL_GPIO_WritePin                        0x08000891   Thumb Code    12  stm32g0xx_hal_gpio.o(i.HAL_GPIO_WritePin)
    HAL_GetTick                              0x0800089d   Thumb Code     6  stm32g0xx_hal.o(i.HAL_GetTick)
    HAL_IncTick                              0x080008a9   Thumb Code    12  stm32g0xx_hal.o(i.HAL_IncTick)
    HAL_Init                                 0x080008b9   Thumb Code    36  stm32g0xx_hal.o(i.HAL_Init)
    HAL_InitTick                             0x080008e1   Thumb Code    64  stm32g0xx_hal.o(i.HAL_InitTick)
    HAL_MspInit                              0x08000929   Thumb Code    54  stm32g0xx_hal_msp.o(i.HAL_MspInit)
    HAL_NVIC_EnableIRQ                       0x08000965   Thumb Code    18  stm32g0xx_hal_cortex.o(i.HAL_NVIC_EnableIRQ)
    HAL_NVIC_SetPriority                     0x0800097d   Thumb Code     8  stm32g0xx_hal_cortex.o(i.HAL_NVIC_SetPriority)
    HAL_PWREx_ControlVoltageScaling          0x08000985   Thumb Code    62  stm32g0xx_hal_pwr_ex.o(i.HAL_PWREx_ControlVoltageScaling)
    HAL_RCCEx_PeriphCLKConfig                0x080009d1   Thumb Code   340  stm32g0xx_hal_rcc_ex.o(i.HAL_RCCEx_PeriphCLKConfig)
    HAL_RCC_ClockConfig                      0x08000b31   Thumb Code   318  stm32g0xx_hal_rcc.o(i.HAL_RCC_ClockConfig)
    HAL_RCC_GetSysClockFreq                  0x08000c89   Thumb Code   130  stm32g0xx_hal_rcc.o(i.HAL_RCC_GetSysClockFreq)
    HAL_RCC_OscConfig                        0x08000d15   Thumb Code   948  stm32g0xx_hal_rcc.o(i.HAL_RCC_OscConfig)
    HAL_SPI_ErrorCallback                    0x080010ed   Thumb Code     2  stm32g0xx_hal_spi.o(i.HAL_SPI_ErrorCallback)
    HAL_SPI_Init                             0x080010ef   Thumb Code   184  stm32g0xx_hal_spi.o(i.HAL_SPI_Init)
    HAL_SPI_MspInit                          0x080011a9   Thumb Code   380  stm32g0xx_hal_msp.o(i.HAL_SPI_MspInit)
    HAL_SPI_RxCpltCallback                   0x0800134d   Thumb Code     2  stm32g0xx_hal_spi.o(i.HAL_SPI_RxCpltCallback)
    HAL_SPI_RxHalfCpltCallback               0x0800134f   Thumb Code     2  stm32g0xx_hal_spi.o(i.HAL_SPI_RxHalfCpltCallback)
    HAL_SPI_TransmitReceive_DMA              0x08001351   Thumb Code   414  stm32g0xx_hal_spi.o(i.HAL_SPI_TransmitReceive_DMA)
    HAL_SPI_Transmit_DMA                     0x0800150d   Thumb Code   250  stm32g0xx_hal_spi.o(i.HAL_SPI_Transmit_DMA)
    HAL_SPI_TxCpltCallback                   0x08001615   Thumb Code     8  main.o(i.HAL_SPI_TxCpltCallback)
    HAL_SPI_TxHalfCpltCallback               0x08001621   Thumb Code     2  stm32g0xx_hal_spi.o(i.HAL_SPI_TxHalfCpltCallback)
    HAL_SPI_TxRxCpltCallback                 0x08001623   Thumb Code     2  stm32g0xx_hal_spi.o(i.HAL_SPI_TxRxCpltCallback)
    HAL_SPI_TxRxHalfCpltCallback             0x08001625   Thumb Code     2  stm32g0xx_hal_spi.o(i.HAL_SPI_TxRxHalfCpltCallback)
    HAL_SYSTICK_Config                       0x08001629   Thumb Code    38  stm32g0xx_hal_cortex.o(i.HAL_SYSTICK_Config)
    HAL_TIMEx_Break2Callback                 0x08001659   Thumb Code     2  stm32g0xx_hal_tim_ex.o(i.HAL_TIMEx_Break2Callback)
    HAL_TIMEx_BreakCallback                  0x0800165b   Thumb Code     2  stm32g0xx_hal_tim_ex.o(i.HAL_TIMEx_BreakCallback)
    HAL_TIMEx_CommutCallback                 0x0800165d   Thumb Code     2  stm32g0xx_hal_tim_ex.o(i.HAL_TIMEx_CommutCallback)
    HAL_TIM_Base_Init                        0x0800165f   Thumb Code    52  stm32g0xx_hal_tim.o(i.HAL_TIM_Base_Init)
    HAL_TIM_Base_MspInit                     0x08001695   Thumb Code   116  stm32g0xx_hal_msp.o(i.HAL_TIM_Base_MspInit)
    HAL_TIM_Base_Start_IT                    0x08001719   Thumb Code    38  stm32g0xx_hal_tim.o(i.HAL_TIM_Base_Start_IT)
    HAL_TIM_IC_CaptureCallback               0x08001745   Thumb Code     2  stm32g0xx_hal_tim.o(i.HAL_TIM_IC_CaptureCallback)
    HAL_TIM_IRQHandler                       0x08001749   Thumb Code   382  stm32g0xx_hal_tim.o(i.HAL_TIM_IRQHandler)
    HAL_TIM_OC_DelayElapsedCallback          0x080018cd   Thumb Code     2  stm32g0xx_hal_tim.o(i.HAL_TIM_OC_DelayElapsedCallback)
    HAL_TIM_PWM_PulseFinishedCallback        0x080018cf   Thumb Code     2  stm32g0xx_hal_tim.o(i.HAL_TIM_PWM_PulseFinishedCallback)
    HAL_TIM_PeriodElapsedCallback            0x080018d1   Thumb Code     2  main.o(i.HAL_TIM_PeriodElapsedCallback)
    HAL_TIM_TriggerCallback                  0x080018d3   Thumb Code     2  stm32g0xx_hal_tim.o(i.HAL_TIM_TriggerCallback)
    HardFault_Handler                        0x080018d5   Thumb Code     2  stm32g0xx_it.o(i.HardFault_Handler)
    IO_init                                  0x080018d9   Thumb Code    50  define_function.o(i.IO_init)
    LTIME_init                               0x08001911   Thumb Code    44  time.o(i.LTIME_init)
    LTime_init_add                           0x08001941   Thumb Code    78  time.o(i.LTime_init_add)
    MX_DMA_Init                              0x08001995   Thumb Code    68  spi_inner.o(i.MX_DMA_Init)
    MX_SPI1_Init                             0x08001a2d   Thumb Code    68  spi_inner.o(i.MX_SPI1_Init)
    MX_SPI2_Init                             0x08001a79   Thumb Code    68  spi_inner.o(i.MX_SPI2_Init)
    NMI_Handler                              0x08001ac5   Thumb Code     2  stm32g0xx_it.o(i.NMI_Handler)
    OLED_Clear                               0x08001ac7   Thumb Code    60  oled.o(i.OLED_Clear)
    OLED_GPIO_Init                           0x08001b21   Thumb Code   182  define_function.o(i.OLED_GPIO_Init)
    OLED_Init                                0x08001bed   Thumb Code   294  oled.o(i.OLED_Init)
    OLED_Show                                0x08001d19   Thumb Code   120  oled.o(i.OLED_Show)
    PendSV_Handler                           0x08001d9d   Thumb Code     2  stm32g0xx_it.o(i.PendSV_Handler)
    SVC_Handler                              0x08002179   Thumb Code     2  stm32g0xx_it.o(i.SVC_Handler)
    SysTick_Handler                          0x0800217b   Thumb Code    16  stm32g0xx_it.o(i.SysTick_Handler)
    SystemClock_Config                       0x0800218b   Thumb Code    94  main.o(i.SystemClock_Config)
    SystemInit                               0x080021e9   Thumb Code    10  system_stm32g0xx_1.o(i.SystemInit)
    TIM14_IRQHandler                         0x080021f9   Thumb Code    10  stm32g0xx_it.o(i.TIM14_IRQHandler)
    TIM16_IRQHandler                         0x08002209   Thumb Code    10  stm32g0xx_it.o(i.TIM16_IRQHandler)
    TIM17_IRQHandler                         0x08002219   Thumb Code    10  stm32g0xx_it.o(i.TIM17_IRQHandler)
    TIME_init                                0x08002229   Thumb Code    44  time.o(i.TIME_init)
    TIM_Base_SetConfig                       0x08002259   Thumb Code   102  stm32g0xx_hal_tim.o(i.TIM_Base_SetConfig)
    USART1_IRQHandler                        0x080022d5   Thumb Code     2  stm32g0xx_it.o(i.USART1_IRQHandler)
    USART2_IRQHandler                        0x080022d7   Thumb Code     2  stm32g0xx_it.o(i.USART2_IRQHandler)
    delay_ms                                 0x0800231d   Thumb Code    24  time.o(i.delay_ms)
    led_twinkle                              0x08002335   Thumb Code    14  main_do.o(i.led_twinkle)
    main                                     0x08002349   Thumb Code   508  main.o(i.main)
    num_pow                                  0x08002589   Thumb Code    20  oled.o(i.num_pow)
    time_init_add                            0x0800259d   Thumb Code    72  time.o(i.time_init_add)
    fonts                                    0x080025e8   Data         760  characters.o(.constdata)
    AHBPrescTable                            0x080028e0   Data          64  system_stm32g0xx_1.o(.constdata)
    Region$$Table$$Base                      0x08002920   Number         0  anon$$obj.o(Region$$Table)
    Region$$Table$$Limit                     0x08002940   Number         0  anon$$obj.o(Region$$Table)
    oled_line1_poistion                      0x20000000   Data           1  main.o(.data)
    dma_data                                 0x20000001   Data           1  main.o(.data)
    led_twinkle_num                          0x20000002   Data           1  main_do.o(.data)
    ltimes                                   0x20000004   Data           8  time.o(.data)
    times                                    0x2000000c   Data          12  time.o(.data)
    oled_flush_flag                          0x20000018   Data           1  global_data.o(.data)
    sys_run_times                            0x2000001c   Data           4  global_data.o(.data)
    sys_run_times_max                        0x20000020   Data           4  global_data.o(.data)
    uwTickPrio                               0x20000024   Data           4  stm32g0xx_hal.o(.data)
    uwTickFreq                               0x20000028   Data           4  stm32g0xx_hal.o(.data)
    uwTick                                   0x2000002c   Data           4  stm32g0xx_hal.o(.data)
    SystemCoreClock                          0x20000030   Data           4  system_stm32g0xx_1.o(.data)
    htim14                                   0x20000034   Data          64  main.o(.bss)
    htim16                                   0x20000074   Data          64  main.o(.bss)
    htim17                                   0x200000b4   Data          64  main.o(.bss)
    hspi1                                    0x200000f4   Data         100  main.o(.bss)
    hspi2                                    0x20000158   Data         100  main.o(.bss)
    hdma_spi1_tx                             0x200001bc   Data          92  main.o(.bss)
    hdma_spi1_rx                             0x20000218   Data          92  main.o(.bss)
    hdma_spi2_tx                             0x20000274   Data          92  main.o(.bss)
    hdma_spi2_rx                             0x200002d0   Data          92  main.o(.bss)
    button                                   0x2000032c   Data          16  time.o(.bss)
    save_board                               0x2000033c   Data          16  time.o(.bss)
    oled_move1                               0x2000034c   Data          16  time.o(.bss)
    run_led                                  0x2000035c   Data          16  time.o(.bss)
    write_oled                               0x2000036c   Data          16  time.o(.bss)
    oled_buff                                0x2000037c   Data         168  global_data.o(.bss)
    pFlash                                   0x20000424   Data          24  stm32g0xx_hal_flash.o(.bss)
    __libspace_start                         0x2000043c   Data          96  libspace.o(.bss)
    __temporary_stack_top$libspace           0x2000049c   Data           0  libspace.o(.bss)



==============================================================================

Memory Map of the image

  Image Entry point : 0x080000c1

  Load Region LR_IROM1 (Base: 0x08000000, Size: 0x00002974, Max: 0x00010000, ABSOLUTE)

    Execution Region ER_IROM1 (Exec base: 0x08000000, Load base: 0x08000000, Size: 0x00002940, Max: 0x00010000, ABSOLUTE)

    Exec Addr    Load Addr    Size         Type   Attr      Idx    E Section Name        Object

    0x08000000   0x08000000   0x000000c0   Data   RO            3    RESET               startup_stm32g030xx.o
    0x080000c0   0x080000c0   0x00000008   Code   RO         3732  * !!!main             c_p.l(__main.o)
    0x080000c8   0x080000c8   0x0000003c   Code   RO         3901    !!!scatter          c_p.l(__scatter.o)
    0x08000104   0x08000104   0x0000001a   Code   RO         3903    !!handler_copy      c_p.l(__scatter_copy.o)
    0x0800011e   0x0800011e   0x00000002   PAD
    0x08000120   0x08000120   0x0000001c   Code   RO         3905    !!handler_zi        c_p.l(__scatter_zi.o)
    0x0800013c   0x0800013c   0x00000002   Code   RO         3770    .ARM.Collect$$libinit$$00000000  c_p.l(libinit.o)
    0x0800013e   0x0800013e   0x00000000   Code   RO         3784    .ARM.Collect$$libinit$$00000002  c_p.l(libinit2.o)
    0x0800013e   0x0800013e   0x00000000   Code   RO         3786    .ARM.Collect$$libinit$$00000004  c_p.l(libinit2.o)
    0x0800013e   0x0800013e   0x00000000   Code   RO         3789    .ARM.Collect$$libinit$$0000000A  c_p.l(libinit2.o)
    0x0800013e   0x0800013e   0x00000000   Code   RO         3791    .ARM.Collect$$libinit$$0000000C  c_p.l(libinit2.o)
    0x0800013e   0x0800013e   0x00000000   Code   RO         3793    .ARM.Collect$$libinit$$0000000E  c_p.l(libinit2.o)
    0x0800013e   0x0800013e   0x00000000   Code   RO         3796    .ARM.Collect$$libinit$$00000011  c_p.l(libinit2.o)
    0x0800013e   0x0800013e   0x00000000   Code   RO         3798    .ARM.Collect$$libinit$$00000013  c_p.l(libinit2.o)
    0x0800013e   0x0800013e   0x00000000   Code   RO         3800    .ARM.Collect$$libinit$$00000015  c_p.l(libinit2.o)
    0x0800013e   0x0800013e   0x00000000   Code   RO         3802    .ARM.Collect$$libinit$$00000017  c_p.l(libinit2.o)
    0x0800013e   0x0800013e   0x00000000   Code   RO         3804    .ARM.Collect$$libinit$$00000019  c_p.l(libinit2.o)
    0x0800013e   0x0800013e   0x00000000   Code   RO         3806    .ARM.Collect$$libinit$$0000001B  c_p.l(libinit2.o)
    0x0800013e   0x0800013e   0x00000000   Code   RO         3808    .ARM.Collect$$libinit$$0000001D  c_p.l(libinit2.o)
    0x0800013e   0x0800013e   0x00000000   Code   RO         3810    .ARM.Collect$$libinit$$0000001F  c_p.l(libinit2.o)
    0x0800013e   0x0800013e   0x00000000   Code   RO         3812    .ARM.Collect$$libinit$$00000021  c_p.l(libinit2.o)
    0x0800013e   0x0800013e   0x00000000   Code   RO         3814    .ARM.Collect$$libinit$$00000023  c_p.l(libinit2.o)
    0x0800013e   0x0800013e   0x00000000   Code   RO         3816    .ARM.Collect$$libinit$$00000025  c_p.l(libinit2.o)
    0x0800013e   0x0800013e   0x00000000   Code   RO         3820    .ARM.Collect$$libinit$$0000002C  c_p.l(libinit2.o)
    0x0800013e   0x0800013e   0x00000000   Code   RO         3822    .ARM.Collect$$libinit$$0000002E  c_p.l(libinit2.o)
    0x0800013e   0x0800013e   0x00000000   Code   RO         3824    .ARM.Collect$$libinit$$00000030  c_p.l(libinit2.o)
    0x0800013e   0x0800013e   0x00000000   Code   RO         3826    .ARM.Collect$$libinit$$00000032  c_p.l(libinit2.o)
    0x0800013e   0x0800013e   0x00000002   Code   RO         3827    .ARM.Collect$$libinit$$00000033  c_p.l(libinit2.o)
    0x08000140   0x08000140   0x00000002   Code   RO         3858    .ARM.Collect$$libshutdown$$00000000  c_p.l(libshutdown.o)
    0x08000142   0x08000142   0x00000000   Code   RO         3884    .ARM.Collect$$libshutdown$$00000002  c_p.l(libshutdown2.o)
    0x08000142   0x08000142   0x00000000   Code   RO         3886    .ARM.Collect$$libshutdown$$00000004  c_p.l(libshutdown2.o)
    0x08000142   0x08000142   0x00000000   Code   RO         3889    .ARM.Collect$$libshutdown$$00000007  c_p.l(libshutdown2.o)
    0x08000142   0x08000142   0x00000000   Code   RO         3892    .ARM.Collect$$libshutdown$$0000000A  c_p.l(libshutdown2.o)
    0x08000142   0x08000142   0x00000000   Code   RO         3894    .ARM.Collect$$libshutdown$$0000000C  c_p.l(libshutdown2.o)
    0x08000142   0x08000142   0x00000000   Code   RO         3897    .ARM.Collect$$libshutdown$$0000000F  c_p.l(libshutdown2.o)
    0x08000142   0x08000142   0x00000002   Code   RO         3898    .ARM.Collect$$libshutdown$$00000010  c_p.l(libshutdown2.o)
    0x08000144   0x08000144   0x00000000   Code   RO         3734    .ARM.Collect$$rtentry$$00000000  c_p.l(__rtentry.o)
    0x08000144   0x08000144   0x00000000   Code   RO         3740    .ARM.Collect$$rtentry$$00000002  c_p.l(__rtentry2.o)
    0x08000144   0x08000144   0x00000006   Code   RO         3752    .ARM.Collect$$rtentry$$00000004  c_p.l(__rtentry4.o)
    0x0800014a   0x0800014a   0x00000000   Code   RO         3742    .ARM.Collect$$rtentry$$00000009  c_p.l(__rtentry2.o)
    0x0800014a   0x0800014a   0x00000004   Code   RO         3743    .ARM.Collect$$rtentry$$0000000A  c_p.l(__rtentry2.o)
    0x0800014e   0x0800014e   0x00000000   Code   RO         3745    .ARM.Collect$$rtentry$$0000000C  c_p.l(__rtentry2.o)
    0x0800014e   0x0800014e   0x00000008   Code   RO         3746    .ARM.Collect$$rtentry$$0000000D  c_p.l(__rtentry2.o)
    0x08000156   0x08000156   0x00000002   Code   RO         3775    .ARM.Collect$$rtexit$$00000000  c_p.l(rtexit.o)
    0x08000158   0x08000158   0x00000000   Code   RO         3831    .ARM.Collect$$rtexit$$00000002  c_p.l(rtexit2.o)
    0x08000158   0x08000158   0x00000004   Code   RO         3832    .ARM.Collect$$rtexit$$00000003  c_p.l(rtexit2.o)
    0x0800015c   0x0800015c   0x00000006   Code   RO         3833    .ARM.Collect$$rtexit$$00000004  c_p.l(rtexit2.o)
    0x08000162   0x08000162   0x00000002   PAD
    0x08000164   0x08000164   0x00000038   Code   RO            4    .text               startup_stm32g030xx.o
    0x0800019c   0x0800019c   0x00000040   Code   RO         3724    .text               c_p.l(rt_memclr.o)
    0x080001dc   0x080001dc   0x0000015a   Code   RO         3726    .text               c_p.l(aeabi_sdiv.o)
    0x08000336   0x08000336   0x00000006   Code   RO         3730    .text               c_p.l(heapauxi.o)
    0x0800033c   0x0800033c   0x0000003e   Code   RO         3756    .text               c_p.l(sys_stackheap_outer.o)
    0x0800037a   0x0800037a   0x00000010   Code   RO         3759    .text               c_p.l(exit.o)
    0x0800038a   0x0800038a   0x00000002   PAD
    0x0800038c   0x0800038c   0x00000008   Code   RO         3771    .text               c_p.l(libspace.o)
    0x08000394   0x08000394   0x0000000c   Code   RO         3828    .text               c_p.l(sys_exit.o)
    0x080003a0   0x080003a0   0x00000002   Code   RO         3847    .text               c_p.l(use_no_semi.o)
    0x080003a2   0x080003a2   0x00000000   Code   RO         3849    .text               c_p.l(indicate_semi.o)
    0x080003a2   0x080003a2   0x00000002   PAD
    0x080003a4   0x080003a4   0x00000010   Code   RO          189    i.DMA1_Ch4_5_DMAMUX1_OVR_IRQHandler  stm32g0xx_it.o
    0x080003b4   0x080003b4   0x00000010   Code   RO          190    i.DMA1_Channel1_IRQHandler  stm32g0xx_it.o
    0x080003c4   0x080003c4   0x00000018   Code   RO          191    i.DMA1_Channel2_3_IRQHandler  stm32g0xx_it.o
    0x080003dc   0x080003dc   0x00000030   Code   RO         2652    i.DMA_CalcDMAMUXChannelBaseAndMask  stm32g0xx_hal_dma.o
    0x0800040c   0x0800040c   0x00000024   Code   RO         2653    i.DMA_CalcDMAMUXRequestGenBaseAndMask  stm32g0xx_hal_dma.o
    0x08000430   0x08000430   0x00000048   Code   RO         2654    i.DMA_SetConfig     stm32g0xx_hal_dma.o
    0x08000478   0x08000478   0x00000002   Code   RO           12    i.Error_Handler     main.o
    0x0800047a   0x0800047a   0x00000008   Code   RO          192    i.FLASH_IRQHandler  stm32g0xx_it.o
    0x08000482   0x08000482   0x00000002   PAD
    0x08000484   0x08000484   0x00000020   Code   RO         2575    i.FLASH_PageErase   stm32g0xx_hal_flash_ex.o
    0x080004a4   0x080004a4   0x0000000c   Code   RO          754    i.GPIO_Init         define_function.o
    0x080004b0   0x080004b0   0x000000b8   Code   RO         2660    i.HAL_DMA_IRQHandler  stm32g0xx_hal_dma.o
    0x08000568   0x08000568   0x000000a0   Code   RO         2661    i.HAL_DMA_Init      stm32g0xx_hal_dma.o
    0x08000608   0x08000608   0x00000090   Code   RO         2665    i.HAL_DMA_Start_IT  stm32g0xx_hal_dma.o
    0x08000698   0x08000698   0x00000002   Code   RO         2468    i.HAL_FLASH_EndOfOperationCallback  stm32g0xx_hal_flash.o
    0x0800069a   0x0800069a   0x00000002   PAD
    0x0800069c   0x0800069c   0x000000bc   Code   RO         2470    i.HAL_FLASH_IRQHandler  stm32g0xx_hal_flash.o
    0x08000758   0x08000758   0x00000002   Code   RO         2475    i.HAL_FLASH_OperationErrorCallback  stm32g0xx_hal_flash.o
    0x0800075a   0x0800075a   0x00000002   PAD
    0x0800075c   0x0800075c   0x00000134   Code   RO          816    i.HAL_GPIO_Init     stm32g0xx_hal_gpio.o
    0x08000890   0x08000890   0x0000000c   Code   RO          820    i.HAL_GPIO_WritePin  stm32g0xx_hal_gpio.o
    0x0800089c   0x0800089c   0x0000000c   Code   RO         3114    i.HAL_GetTick       stm32g0xx_hal.o
    0x080008a8   0x080008a8   0x00000010   Code   RO         3120    i.HAL_IncTick       stm32g0xx_hal.o
    0x080008b8   0x080008b8   0x00000028   Code   RO         3121    i.HAL_Init          stm32g0xx_hal.o
    0x080008e0   0x080008e0   0x00000048   Code   RO         3122    i.HAL_InitTick      stm32g0xx_hal.o
    0x08000928   0x08000928   0x0000003c   Code   RO          292    i.HAL_MspInit       stm32g0xx_hal_msp.o
    0x08000964   0x08000964   0x00000018   Code   RO         2998    i.HAL_NVIC_EnableIRQ  stm32g0xx_hal_cortex.o
    0x0800097c   0x0800097c   0x00000008   Code   RO         3002    i.HAL_NVIC_SetPriority  stm32g0xx_hal_cortex.o
    0x08000984   0x08000984   0x0000004c   Code   RO         2883    i.HAL_PWREx_ControlVoltageScaling  stm32g0xx_hal_pwr_ex.o
    0x080009d0   0x080009d0   0x00000160   Code   RO         2422    i.HAL_RCCEx_PeriphCLKConfig  stm32g0xx_hal_rcc_ex.o
    0x08000b30   0x08000b30   0x00000158   Code   RO         2312    i.HAL_RCC_ClockConfig  stm32g0xx_hal_rcc.o
    0x08000c88   0x08000c88   0x0000008c   Code   RO         2321    i.HAL_RCC_GetSysClockFreq  stm32g0xx_hal_rcc.o
    0x08000d14   0x08000d14   0x000003d8   Code   RO         2325    i.HAL_RCC_OscConfig  stm32g0xx_hal_rcc.o
    0x080010ec   0x080010ec   0x00000002   Code   RO         3374    i.HAL_SPI_ErrorCallback  stm32g0xx_hal_spi.o
    0x080010ee   0x080010ee   0x000000b8   Code   RO         3378    i.HAL_SPI_Init      stm32g0xx_hal_spi.o
    0x080011a6   0x080011a6   0x00000002   PAD
    0x080011a8   0x080011a8   0x000001a4   Code   RO          294    i.HAL_SPI_MspInit   stm32g0xx_hal_msp.o
    0x0800134c   0x0800134c   0x00000002   Code   RO         3384    i.HAL_SPI_RxCpltCallback  stm32g0xx_hal_spi.o
    0x0800134e   0x0800134e   0x00000002   Code   RO         3385    i.HAL_SPI_RxHalfCpltCallback  stm32g0xx_hal_spi.o
    0x08001350   0x08001350   0x000001bc   Code   RO         3388    i.HAL_SPI_TransmitReceive_DMA  stm32g0xx_hal_spi.o
    0x0800150c   0x0800150c   0x00000108   Code   RO         3390    i.HAL_SPI_Transmit_DMA  stm32g0xx_hal_spi.o
    0x08001614   0x08001614   0x0000000c   Code   RO           13    i.HAL_SPI_TxCpltCallback  main.o
    0x08001620   0x08001620   0x00000002   Code   RO         3393    i.HAL_SPI_TxHalfCpltCallback  stm32g0xx_hal_spi.o
    0x08001622   0x08001622   0x00000002   Code   RO         3394    i.HAL_SPI_TxRxCpltCallback  stm32g0xx_hal_spi.o
    0x08001624   0x08001624   0x00000002   Code   RO         3395    i.HAL_SPI_TxRxHalfCpltCallback  stm32g0xx_hal_spi.o
    0x08001626   0x08001626   0x00000002   PAD
    0x08001628   0x08001628   0x00000030   Code   RO         3006    i.HAL_SYSTICK_Config  stm32g0xx_hal_cortex.o
    0x08001658   0x08001658   0x00000002   Code   RO         1565    i.HAL_TIMEx_Break2Callback  stm32g0xx_hal_tim_ex.o
    0x0800165a   0x0800165a   0x00000002   Code   RO         1566    i.HAL_TIMEx_BreakCallback  stm32g0xx_hal_tim_ex.o
    0x0800165c   0x0800165c   0x00000002   Code   RO         1567    i.HAL_TIMEx_CommutCallback  stm32g0xx_hal_tim_ex.o
    0x0800165e   0x0800165e   0x00000034   Code   RO          882    i.HAL_TIM_Base_Init  stm32g0xx_hal_tim.o
    0x08001692   0x08001692   0x00000002   PAD
    0x08001694   0x08001694   0x00000084   Code   RO          296    i.HAL_TIM_Base_MspInit  stm32g0xx_hal_msp.o
    0x08001718   0x08001718   0x0000002c   Code   RO          887    i.HAL_TIM_Base_Start_IT  stm32g0xx_hal_tim.o
    0x08001744   0x08001744   0x00000002   Code   RO          911    i.HAL_TIM_IC_CaptureCallback  stm32g0xx_hal_tim.o
    0x08001746   0x08001746   0x00000002   PAD
    0x08001748   0x08001748   0x00000184   Code   RO          925    i.HAL_TIM_IRQHandler  stm32g0xx_hal_tim.o
    0x080018cc   0x080018cc   0x00000002   Code   RO          928    i.HAL_TIM_OC_DelayElapsedCallback  stm32g0xx_hal_tim.o
    0x080018ce   0x080018ce   0x00000002   Code   RO          955    i.HAL_TIM_PWM_PulseFinishedCallback  stm32g0xx_hal_tim.o
    0x080018d0   0x080018d0   0x00000002   Code   RO           14    i.HAL_TIM_PeriodElapsedCallback  main.o
    0x080018d2   0x080018d2   0x00000002   Code   RO          968    i.HAL_TIM_TriggerCallback  stm32g0xx_hal_tim.o
    0x080018d4   0x080018d4   0x00000002   Code   RO          193    i.HardFault_Handler  stm32g0xx_it.o
    0x080018d6   0x080018d6   0x00000002   PAD
    0x080018d8   0x080018d8   0x00000038   Code   RO          755    i.IO_init           define_function.o
    0x08001910   0x08001910   0x00000030   Code   RO          391    i.LTIME_init        time.o
    0x08001940   0x08001940   0x00000054   Code   RO          392    i.LTime_init_add    time.o
    0x08001994   0x08001994   0x00000048   Code   RO          509    i.MX_DMA_Init       spi_inner.o
    0x080019dc   0x080019dc   0x00000050   Code   RO           15    i.MX_GPIO_Init      main.o
    0x08001a2c   0x08001a2c   0x0000004c   Code   RO          510    i.MX_SPI1_Init      spi_inner.o
    0x08001a78   0x08001a78   0x0000004c   Code   RO          511    i.MX_SPI2_Init      spi_inner.o
    0x08001ac4   0x08001ac4   0x00000002   Code   RO          194    i.NMI_Handler       stm32g0xx_it.o
    0x08001ac6   0x08001ac6   0x0000003c   Code   RO          617    i.OLED_Clear        oled.o
    0x08001b02   0x08001b02   0x0000001e   Code   RO          618    i.OLED_Coord        oled.o
    0x08001b20   0x08001b20   0x000000cc   Code   RO          756    i.OLED_GPIO_Init    define_function.o
    0x08001bec   0x08001bec   0x0000012c   Code   RO          621    i.OLED_Init         oled.o
    0x08001d18   0x08001d18   0x00000084   Code   RO          622    i.OLED_Show         oled.o
    0x08001d9c   0x08001d9c   0x00000002   Code   RO          195    i.PendSV_Handler    stm32g0xx_it.o
    0x08001d9e   0x08001d9e   0x00000022   Code   RO         3406    i.SPI_DMAError      stm32g0xx_hal_spi.o
    0x08001dc0   0x08001dc0   0x0000000a   Code   RO         3407    i.SPI_DMAHalfReceiveCplt  stm32g0xx_hal_spi.o
    0x08001dca   0x08001dca   0x0000000a   Code   RO         3408    i.SPI_DMAHalfTransmitCplt  stm32g0xx_hal_spi.o
    0x08001dd4   0x08001dd4   0x0000000a   Code   RO         3409    i.SPI_DMAHalfTransmitReceiveCplt  stm32g0xx_hal_spi.o
    0x08001dde   0x08001dde   0x00000058   Code   RO         3410    i.SPI_DMAReceiveCplt  stm32g0xx_hal_spi.o
    0x08001e36   0x08001e36   0x00000068   Code   RO         3412    i.SPI_DMATransmitCplt  stm32g0xx_hal_spi.o
    0x08001e9e   0x08001e9e   0x0000005e   Code   RO         3413    i.SPI_DMATransmitReceiveCplt  stm32g0xx_hal_spi.o
    0x08001efc   0x08001efc   0x00000078   Code   RO         3415    i.SPI_EndRxTransaction  stm32g0xx_hal_spi.o
    0x08001f74   0x08001f74   0x0000004c   Code   RO         3416    i.SPI_EndRxTxTransaction  stm32g0xx_hal_spi.o
    0x08001fc0   0x08001fc0   0x00000090   Code   RO         3421    i.SPI_WaitFifoStateUntilTimeout  stm32g0xx_hal_spi.o
    0x08002050   0x08002050   0x0000008c   Code   RO         3422    i.SPI_WaitFlagStateUntilTimeout  stm32g0xx_hal_spi.o
    0x080020dc   0x080020dc   0x0000003c   Code   RO          627    i.SPI_Write         oled.o
    0x08002118   0x08002118   0x00000034   Code   RO          628    i.SPI_Write_command  oled.o
    0x0800214c   0x0800214c   0x0000002c   Code   RO          629    i.SPI_Write_data    oled.o
    0x08002178   0x08002178   0x00000002   Code   RO          196    i.SVC_Handler       stm32g0xx_it.o
    0x0800217a   0x0800217a   0x00000010   Code   RO          197    i.SysTick_Handler   stm32g0xx_it.o
    0x0800218a   0x0800218a   0x0000005e   Code   RO           16    i.SystemClock_Config  main.o
    0x080021e8   0x080021e8   0x00000010   Code   RO         3691    i.SystemInit        system_stm32g0xx_1.o
    0x080021f8   0x080021f8   0x00000010   Code   RO          198    i.TIM14_IRQHandler  stm32g0xx_it.o
    0x08002208   0x08002208   0x00000010   Code   RO          199    i.TIM16_IRQHandler  stm32g0xx_it.o
    0x08002218   0x08002218   0x00000010   Code   RO          200    i.TIM17_IRQHandler  stm32g0xx_it.o
    0x08002228   0x08002228   0x00000030   Code   RO          393    i.TIME_init         time.o
    0x08002258   0x08002258   0x0000007c   Code   RO          970    i.TIM_Base_SetConfig  stm32g0xx_hal_tim.o
    0x080022d4   0x080022d4   0x00000002   Code   RO          201    i.USART1_IRQHandler  stm32g0xx_it.o
    0x080022d6   0x080022d6   0x00000002   Code   RO          202    i.USART2_IRQHandler  stm32g0xx_it.o
    0x080022d8   0x080022d8   0x00000044   Code   RO         3008    i.__NVIC_SetPriority  stm32g0xx_hal_cortex.o
    0x0800231c   0x0800231c   0x00000018   Code   RO          394    i.delay_ms          time.o
    0x08002334   0x08002334   0x00000014   Code   RO          359    i.led_twinkle       main_do.o
    0x08002348   0x08002348   0x00000240   Code   RO           17    i.main              main.o
    0x08002588   0x08002588   0x00000014   Code   RO          630    i.num_pow           oled.o
    0x0800259c   0x0800259c   0x0000004c   Code   RO          395    i.time_init_add     time.o
    0x080025e8   0x080025e8   0x000002f8   Data   RO          743    .constdata          characters.o
    0x080028e0   0x080028e0   0x00000040   Data   RO         3692    .constdata          system_stm32g0xx_1.o
    0x08002920   0x08002920   0x00000020   Data   RO         3899    Region$$Table       anon$$obj.o


    Execution Region RW_IRAM1 (Exec base: 0x20000000, Load base: 0x08002940, Size: 0x00000aa0, Max: 0x00002000, ABSOLUTE)

    Exec Addr    Load Addr    Size         Type   Attr      Idx    E Section Name        Object

    0x20000000   0x08002940   0x00000002   Data   RW           23    .data               main.o
    0x20000002   0x08002942   0x00000001   Data   RW          360    .data               main_do.o
    0x20000003   0x08002943   0x00000001   PAD
    0x20000004   0x08002944   0x00000014   Data   RW          401    .data               time.o
    0x20000018   0x08002958   0x00000001   Data   RW          794    .data               global_data.o
    0x20000019   0x08002959   0x00000003   PAD
    0x2000001c   0x0800295c   0x00000004   Data   RW          800    .data               global_data.o
    0x20000020   0x08002960   0x00000004   Data   RW          801    .data               global_data.o
    0x20000024   0x08002964   0x0000000c   Data   RW         3134    .data               stm32g0xx_hal.o
    0x20000030   0x08002970   0x00000004   Data   RW         3694    .data               system_stm32g0xx_1.o
    0x20000034        -       0x00000188   Zero   RW           18    .bss                main.o
    0x200001bc        -       0x0000005c   Zero   RW           19    .bss                main.o
    0x20000218        -       0x0000005c   Zero   RW           20    .bss                main.o
    0x20000274        -       0x0000005c   Zero   RW           21    .bss                main.o
    0x200002d0        -       0x0000005c   Zero   RW           22    .bss                main.o
    0x2000032c        -       0x00000010   Zero   RW          396    .bss                time.o
    0x2000033c        -       0x00000010   Zero   RW          397    .bss                time.o
    0x2000034c        -       0x00000010   Zero   RW          398    .bss                time.o
    0x2000035c        -       0x00000010   Zero   RW          399    .bss                time.o
    0x2000036c        -       0x00000010   Zero   RW          400    .bss                time.o
    0x2000037c        -       0x000000a8   Zero   RW          787    .bss                global_data.o
    0x20000424        -       0x00000018   Zero   RW         2479    .bss                stm32g0xx_hal_flash.o
    0x2000043c        -       0x00000060   Zero   RW         3772    .bss                c_p.l(libspace.o)
    0x2000049c   0x08002974   0x00000004   PAD
    0x200004a0        -       0x00000200   Zero   RW            2    HEAP                startup_stm32g030xx.o
    0x200006a0        -       0x00000400   Zero   RW            1    STACK               startup_stm32g030xx.o


==============================================================================

Image component sizes


      Code (inc. data)   RO Data    RW Data    ZI Data      Debug   Object Name

         0          0        760          0          0        572   characters.o
       272         28          0          0          0       1647   define_function.o
         0          0          0          9        168       1406   global_data.o
       766         78          0          2        760     398230   main.o
        20          6          0          1          0        761   main_do.o
       698         32          0          0          0       5070   oled.o
       224         20          0          0          0       1860   spi_inner.o
        56         26        192          0       1536        652   startup_stm32g030xx.o
       140         22          0         12          0       3333   stm32g0xx_hal.o
       148         24          0          0          0      12221   stm32g0xx_hal_cortex.o
       644         34          0          0          0       4971   stm32g0xx_hal_dma.o
       192         18          0          0         24      10346   stm32g0xx_hal_flash.o
        32         10          0          0          0       1430   stm32g0xx_hal_flash_ex.o
       320         18          0          0          0       2388   stm32g0xx_hal_gpio.o
       612         62          0          0          0       2591   stm32g0xx_hal_msp.o
        76         14          0          0          0        762   stm32g0xx_hal_pwr_ex.o
      1468         72          0          0          0       4754   stm32g0xx_hal_rcc.o
       352         12          0          0          0       1736   stm32g0xx_hal_rcc_ex.o
      1734         44          0          0          0      14861   stm32g0xx_hal_spi.o
       616         34          0          0          0       6629   stm32g0xx_hal_tim.o
         6          0          0          0          0       2252   stm32g0xx_hal_tim_ex.o
       140         38          0          0          0       6419   stm32g0xx_it.o
        16          6         64          4          0       1175   system_stm32g0xx_1.o
       280         18          0         20         80       4156   time.o

    ----------------------------------------------------------------------
      8828        616       1048         52       2568     490222   Object Totals
         0          0         32          0          0          0   (incl. Generated)
        16          0          0          4          0          0   (incl. Padding)

    ----------------------------------------------------------------------

      Code (inc. data)   RO Data    RW Data    ZI Data      Debug   Library Member Name

         8          0          0          0          0         68   __main.o
         0          0          0          0          0          0   __rtentry.o
        12          0          0          0          0          0   __rtentry2.o
         6          0          0          0          0          0   __rtentry4.o
        60          8          0          0          0          0   __scatter.o
        26          0          0          0          0          0   __scatter_copy.o
        28          0          0          0          0          0   __scatter_zi.o
       346          0          0          0          0         92   aeabi_sdiv.o
        16          0          0          0          0         68   exit.o
         6          0          0          0          0        136   heapauxi.o
         0          0          0          0          0          0   indicate_semi.o
         2          0          0          0          0          0   libinit.o
         2          0          0          0          0          0   libinit2.o
         2          0          0          0          0          0   libshutdown.o
         2          0          0          0          0          0   libshutdown2.o
         8          4          0          0         96         68   libspace.o
        64          0          0          0          0        108   rt_memclr.o
         2          0          0          0          0          0   rtexit.o
        10          0          0          0          0          0   rtexit2.o
        12          4          0          0          0         60   sys_exit.o
        62          0          0          0          0         80   sys_stackheap_outer.o
         2          0          0          0          0         68   use_no_semi.o

    ----------------------------------------------------------------------
       684         16          0          0        100        748   Library Totals
         8          0          0          0          4          0   (incl. Padding)

    ----------------------------------------------------------------------

      Code (inc. data)   RO Data    RW Data    ZI Data      Debug   Library Name

       676         16          0          0         96        748   c_p.l

    ----------------------------------------------------------------------
       684         16          0          0        100        748   Library Totals

    ----------------------------------------------------------------------

==============================================================================


      Code (inc. data)   RO Data    RW Data    ZI Data      Debug   

      9512        632       1048         52       2668     486558   Grand Totals
      9512        632       1048         52       2668     486558   ELF Image Totals
      9512        632       1048         52          0          0   ROM Totals

==============================================================================

    Total RO  Size (Code + RO Data)                10560 (  10.31kB)
    Total RW  Size (RW Data + ZI Data)              2720 (   2.66kB)
    Total ROM Size (Code + RO Data + RW Data)      10612 (  10.36kB)

==============================================================================

