:020000040800F2
:10000000A00A002065010008C51A0008D5180008DC
:1000100000000000000000000000000000000000E0
:10002000000000000000000000000000792100082E
:1000300000000000000000009D1D00087B2100085A
:100040007701000800000000770100087B04000829
:1000500077010008770100087701000877010008A0
:1000600000000000B5030008C5030008A503000850
:100070007701000877010008770100080000000000
:10008000770100080000000000000000F9210008CE
:10009000000000000922000819220008770100086A
:1000A000770100087701000877010008D5220008D1
:1000B000D72200080000000000000000000000003F
:1000C00000F002F800F03EF80CA030C80838241800
:1000D0002D18A246671EAB4654465D46AC4201D180
:1000E00000F030F87E460F3E0FCCB6460126334274
:1000F00000D0FB1AA246AB46334318472428000021
:1001000044280000103A02D378C878C1FAD85207C0
:1001100001D330C830C101D504680C6070470000BD
:100120000023002400250026103A01D378C1FBD813
:10013000520700D330C100D50B6070471FB51FBDFB
:1001400010B510BD00F0FAF81146FFF7F7FF02F006
:10015000FBF800F012F903B4FFF7F2FF03BC00F064
:1001600019F900000748804707480047FEE7FEE707
:10017000FEE7FEE7FEE7FEE704480549054A064BB1
:1001800070470000E9210008C1000008A004002019
:10019000A00A0020A0060020A006002001E004C064
:1001A000091F0429FBD28B0701D50280801CC907D7
:1001B00000D00270704700290BD0C30702D0027034
:1001C000401C491E022904D3830702D50280801CEB
:1001D000891EE3E70022EEE70022DFE700220309A1
:1001E0008B422CD3030A8B4211D300239C464EE052
:1001F00003460B433CD4002243088B4231D303090E
:100200008B421CD3030A8B4201D394463FE0C309BF
:100210008B4201D3CB01C01A524183098B4201D3D7
:100220008B01C01A524143098B4201D34B01C01AC2
:10023000524103098B4201D30B01C01A5241C3083A
:100240008B4201D3CB00C01A524183088B4201D3A9
:100250008B00C01A524143088B4201D34B00C01A95
:100260005241411A00D201465241104670475DE0AA
:10027000CA0F00D04942031000D34042534000222D
:100280009C4603098B422DD3030A8B4212D3FC22D6
:10029000890112BA030A8B420CD3890192118B4255
:1002A00008D3890192118B4204D389013AD092116B
:1002B00000E08909C3098B4201D3CB01C01A524126
:1002C00083098B4201D38B01C01A524143098B42EF
:1002D00001D34B01C01A524103098B4201D30B01D8
:1002E000C01A5241C3088B4201D3CB00C01A5241FD
:1002F00083088B4201D38B00C01A5241D9D24308E4
:100300008B4201D34B00C01A5241411A00D2014620
:10031000634652415B10104601D34042002B00D58A
:100320004942704763465B1000D3404201B500204C
:10033000C046C04602BD704770477047754600F022
:1003400025F8AE46050069465346C008C0008546FC
:1003500018B020B5FFF710FF60BC00274908B6466B
:100360000026C0C5C0C5C0C5C0C5C0C5C0C5C0C5C4
:10037000C0C5403D49008D46704710B50446C04693
:10038000C0462046FFF7E7FE10BD0000004870475A
:100390003C04002001491820ABBEFEE72600020005
:1003A0007047000010B5024800F082F810BD000050
:1003B0001802002010B5024800F07AF810BD0000C5
:1003C0007402002010B5034800F072F8024800F0F3
:1003D0006FF810BDD0020020BC01002010B504460B
:1003E000007814210838FFF7F9FE216C064A8908C5
:1003F00089008918616404498031A1641C21084086
:1004000001218140E16410BD000802400179074BE1
:100410008A00D2180265054A4432491E42658A079D
:10042000920F01219140816570470000FC08024055
:10043000F0B5846CC56C6560046D002C02D0446D11
:10044000856D65600B4F7C68056C1C263540012668
:10045000AE4034437C60046863608368102B03689B
:1004600003D099600068C260F0BD9A600068C16006
:10047000F0BD000000000240704710B500F00EF91A
:1004800010BD0000054A5169FF23F9339943C000AC
:1004900008430349084350617047000000200240B0
:1004A0000200010010B501F017FA01F039FB10BD90
:1004B000F0B42C4D2B6801680A68046C1C273C4082
:1004C0000426A6401E4211D056070FD50A68920690
:1004D00003D40B68042293430B606A68036C042105
:1004E0003B4099400A436A60016B1CE00227A74029
:1004F00006461F402036002F19D0970717D50A68E7
:10050000920605D40A680A239A430A600121717190
:100510006B68026C1C210A40022191400B436B6006
:1005200000213171C16A00291AD0F0BC08470827A0
:10053000A7401F4214D0120712D50A680E239A430F
:100540000A606A68036C1C210B4001210C469C4028
:1005500022436A60C163717100213171416BE2E72E
:10056000F0BC70470000024070B504003DD0244844
:10057000256814212818FFF731FE8000206402202E
:1005800026462036707128681E4908402860A168F8
:10059000E06862690143206910430143A069014397
:1005A000E0690143206A0143206802681143016049
:1005B0002046FFF713FF0121A06889030025884228
:1005C00000D16560616C20790860A06CE16C4160CD
:1005D0006068401E03280AD82046FFF717FF206DE9
:1005E0000560606DA16D416004E0012070BD25656E
:1005F0006565A565E563012070713571002070BDEA
:10060000F8FFFDBF0F80FFFFF8B505460446203513
:10061000287900278C4601280AD0012028716879A2
:100620000026012806D02E7102272E713846F8BD0B
:100630000220F8BD02206871E6632068016849085D
:100640004900016061462046FFF7F2FE206B00285A
:100650002068016801D00E2205E004229143016068
:10066000206801680A2211430160606C0168CA03B6
:10067000084902D502680A430260206D002802D0B2
:1006800002680A4302602068016801221143016088
:10069000CBE700000001000070470000F8B52A4ECB
:1006A00000253169ED4329480140B06972041040CA
:1006B00072690843264CA1688A437261254A114237
:1006C00001D0E56803E04907890F00D025690027BC
:1006D000002812D0616801436160810F04D0B169C4
:1006E000820F92071143B161810002D0800080081F
:1006F00030612846A76000F02FF83069C043C0077A
:1007000012D101203061A068022809D16069401E21
:10071000606105D02069401C2061FFF7B3FE00E056
:10072000A7602846FFF7B8FFA06800280AD1B06983
:10073000012109068843B0617069032109068843D5
:1007400070612770F8BD000000200240FA830000AD
:10075000240400200100040070470000F0B50022CE
:1007600087E001249440A44623407DD04C68022CAD
:1007700001D0122C0CD1D408A40027183D6A5407CC
:10078000E40E0F26A640B5430E69A6402E433E62F6
:10079000066855000324AC400F79A643BF07BF0F7E
:1007A000AF40374307604E68012E05D0022E03D0BC
:1007B000112E01D0122E0ED18668CF68A643AF400D
:1007C0003743876047686646B7430E79F606F60FEB
:1007D00096403E434660C668A6438C68AC403443AE
:1007E000C4604C68E40043D59508254CAD002F1932
:1007F0003D6E9407E40E0F26A640B5430526360746
:10080000B04201D100260FE01E4EB04201D10126B8
:100810000AE01D4EB04201D1022605E01B4EB04257
:1008200001D1032600E00526A6402E43144D3E6666
:10083000134E803634684F689C43FF0300D51C4339
:10084000346074684F689C43BF0300D51C437460D8
:100850002C684E689C43F60200D51C432C606C68E3
:100860004E689C43B60200E002E000D51C436C6079
:10087000521C0B681C46D44000D072E7F0BD00004B
:10088000001802400004005000080050000C005006
:10089000002A01D0816170478162704701488068F9
:1008A00070470000240000200248816842688918CF
:1008B000816070472400002010B5084800240168BA
:1008C000821511430160204600F00AF8002801D08B
:1008D000012401E000F028F8204610BD002002406D
:1008E00070B50F4E002471680546002915D07D2093
:1008F000C000FFF773FC01460A480068FFF76EFC72
:1009000000F092FE002808D1042D06D200222946CC
:10091000401E00F033F8356000E00124204670BD31
:10092000240000203000002008B50D480168012295
:100930001143016000681040009009484038C26BC4
:1009400001040A43C263C06B0022084000901146B4
:10095000032000F013F8032000F004F808BD0000A5
:1009600040100240002805DBC106C90E0120884066
:10097000014908607047000000E100E010B501F097
:10098000ABFC10BD10B50F4C2168032252029143FD
:1009900001432160C11FFF39FA390ED10A480621EF
:1009A000006848430949FFF719FC401C02E0002891
:1009B00005D0401E61694905F9D4002010BD03200F
:1009C00010BD0000007000403000002040420F00C9
:1009D000FEB5044600250068524E2F46800359D5C7
:1009E000002001904F484038C06BC0000AD44D48E9
:1009F0004038C26B01040A43C263C06B08400090D8
:100A00000120019048480168821511430160FFF7F9
:100A100045FF009007E0FFF741FF0099401A0228C8
:100A200001D903252CE040480068C005F3D5002D0E
:100A300026D1F0690321090208400FD06169814283
:100A40000CD0F06903210902F269884301210904ED
:100A50000A43F261F2698A43F261F061C00759D03A
:100A6000FFF71CFF009006E0FFF718FF0099411AFE
:100A70002E488142D5D8F0698007F5D5002D49D0A0
:100A80002F460198002805D026484038C26B010443
:100A90008A43C2632078C00705D070696168800806
:100AA0008000084370612078400606D570690321F4
:100AB00009038843A168084370612088400411D568
:100AC00070692169800080080843706101212069F4
:100AD0008907884206D113484038C16801221204B0
:100AE0001143C1602088000512D570690321890374
:100AF0008843E168084370610121E0688903884206
:100B000006D108484038C168012212041143C1606F
:100B10003846FEBDF0690321090288436169084334
:100B2000F061AEE740100240007000408813000002
:100B3000F8B50D46040044D04D4800684007400F0A
:100B4000A84214D24A4F3868C008C0002843386011
:100B5000FFF7A4FE064605E0FFF7A0FE811B45480F
:100B6000814260D838684007400FA842F4D120681D
:100B7000414E81070DD5400704D5B0680721090310
:100B80000843B060B0680F2109028843A168084398
:100B9000B0602078C00731D0606801280AD00228F0
:100BA0000BD000280FD03449403103280ED0C9693A
:100BB000890704E03168890301E03168890100296F
:100BC00006DB0120F8BD31684905F8E7096AEFE75F
:100BD000B168C908C9000143B160FFF75FFE07466D
:100BE00005E0FFF75BFEC11B224881421BD8B068BD
:100BF000382108406168C9008842F2D11C48016868
:100C00004907490FA94216D90168C908C9002943F3
:100C10000160FFF743FE074607E0FFF73FFEC11BF9
:100C20001448814201D90320F8BD114800684007EB
:100C3000400FA842F1D12078400706D5B1680720BF
:100C400000038143E0680143B16000F01DF8B16822
:100C50003C2289091140094A515CC906C90EC840A5
:100C60000749086007480068FFF73AFEF8BD000032
:100C7000002002408813000000100240E028000815
:100C8000300000202400002010B5204CA068204A2D
:100C90008006400F16D0A0688006410F5010012931
:100CA0000FD0A1688906490F022912D0A0688006DA
:100CB000400F042823D0A0688006400F032821D0CD
:100CC000002010BD206801218004400F81401046A3
:100CD00012E0E1688B07E1689B0F4906490F491C48
:100CE000032B00D01046FFF779FAE1684904490E5A
:100CF0004843E168490F491CFFF770FA10BD012015
:100D0000C00310BD7D20000210BD00000010024095
:100D10000024F400F8B504007ED020783827C007FE
:100D2000E94E002845D0B068F16838408907890F3E
:100D3000102802D008280AD001E0032907D0012199
:100D400060680904884209D13068084314E03068BB
:100D500080032ED560680028DED02AE0052301221A
:100D60001B0492049842306802D110433060EBE7D4
:100D700088433060306890433060606800280CD051
:100D8000FFF78CFD054604E0FFF788FD401B642853
:100D900072D830688003F7D50BE0FFF77FFD05467A
:100DA00004E0FFF77BFD401B6428F1D83068800326
:100DB000F7D42078800768D5B068F16838408A0792
:100DC0000721920FC902102802D0002813D001E099
:100DD000022A10D0E0680028306845D08843216995
:100DE000084330603168FF20013001433160FFF774
:100DF00055FD05462CE03268520502D5E268002A0E
:100E00008AD072687F231B029A4363691B021A43CC
:100E10007260002810D100E08CE0306888432169BE
:100E200008433060306801218004400F8140A748AA
:100E3000FFF7D4F9A6490860A6480068FFF750FDFF
:100E4000002877D121E0FFF729FD401B02289FD819
:100E500030684005F7D570687F21090288436169D1
:100E600009020843706010E0FF21013188433060BF
:100E7000FFF714FD054605E0A6E0FFF70FFD401B58
:100E8000022885D830684005F7D42078924D0007B5
:100E90002ED5B0688006400F03280AD0A06900282C
:100EA000286A16D0012108432862FFF7F7FC07469D
:100EB0000BE0286A80071BD5A0690028A0D017E0A6
:100EC000FFF7ECFCC01B02287ED8286A8007F7D504
:100ED0000EE0400840002862FFF7E0FC074604E00F
:100EE000FFF7DCFCC01B02286ED8286A8007F7D405
:100EF000207840076BD500200090B0688006400F36
:100F0000042818D0F06BC00008D4F16B0120000752
:100F10000143F163F16B0140012000906F480168CB
:100F2000C90518D40168821511430160FFF7B6FCAA
:100F300007460CE084E0E869800748D5A0680028EF
:100F40007ED044E0FFF7AAFCC01B02283CD86348CF
:100F50000068C005F6D5A068012810D00421052836
:100F6000E86910D040084000E861E8698843E8611A
:100F7000A068002814D0FFF791FC07460CE0E86950
:100F800001210843F3E70843E861F8E7FFF786FC2F
:100F9000C11B534881426ED8E8698007F6D50CE042
:100FA000FFF77CFC074605E0FFF778FCC11B4C48C7
:100FB000814260D8E8698007F6D40098002806D0FE
:100FC000F06B0121090700E055E08843F063E06918
:100FD000002877D0B1688906490F022951D001272E
:100FE0003F06022830680DD0B8433060F0688008B2
:100FF0008000F060F0683B490840F060FFF74EFC6D
:1010000004463AE0B8433060FFF748FC054604E088
:10101000FFF744FC401B02282DD830688001F7D42C
:10102000616A206AA26A0843E16A12021143084316
:10103000216B0843F1682C4A11400843F06000E03E
:101040003EE0306838433060F0680121090708430A
:10105000F060FFF723FC044604E0FFF71FFC001BD1
:10106000022808D830688001F7D52BE0FFF716FC7E
:10107000001B022801D90320F8BD30688001F5D497
:1010800020E00128F8D0F068226A8107890F914298
:1010900016D17021626A0140914211D17F21A26A6A
:1010A00009020140120291420AD11F214904E26A59
:1010B0000140914204D1400F216B4007884201D08A
:1010C0000120F8BD0020F8BD001002400024F4000B
:1010D000300000202400002040100240007000403A
:1010E00088130000FFFFFEEF8C80C11F7047F8B52A
:1010F000040007D0002625464035A662687F0028F8
:1011000002D005E00120F8BD2E77204600F04CF813
:1011100002226A772068016840239943016007230F
:10112000E0681B02984201D9002101E00121090376
:101130000F273F02B84202D0984200D0A662276B28
:10114000002F05D1984201D9226301E001202063DC
:10115000A26860686369104322691A43104301233F
:10116000A2695B021A401043E2691043226A1043ED
:10117000A26A104322681060626B606AA369104320
:101180001B0C0427E2683B401A43104308432168C4
:1011900048602068C1697A029143C16126660120D6
:1011A00068770020F8BD0000F0B587B00446142130
:1011B0006846FFF711F85B4A21685B48022603275F
:1011C0000025914248D1584940310A6883141A4396
:1011D0000A60096819400591416B0122114341637E
:1011E000406B029510400590E02000900520694674
:1011F0000397019604950007FFF7B0FA4C4E4B4851
:1012000030601027B7601120F56070607561B561BE
:101210008020F56130610320000330623046FFF723
:10122000A3F9002801D0FFF727F96665B462414EA3
:101230003E48B5601430F56081C6F56035618020A8
:101240007561B06003200003B0613A48083E62E077
:10125000A665B46207B0F0BD374A9142FAD1C16BBE
:1012600012141143C163C16B11400591416B3143AD
:101270004163406B0397304005904020009004206C
:1012800004900196029569462C48FFF767FAFF2003
:1012900081300090012004900397019602956946E1
:1012A0002648FFF75BFA2648016801221204114321
:1012B000016001685200114301600168820011431E
:1012C0000160204E19483146283830601320706084
:1012D000102080270831A1C17561B561032000038A
:1012E000F56130623046FFF73FF9002801D0FFF783
:1012F000C3F866650D48B462134E14383060B560AB
:10130000F5607561B56137611220F5617060032089
:10131000000330623046FFF727F9002898D0FFF726
:10132000ABF895E700300140001002403000024069
:10133000BC010020180200200038004000040050CA
:101340000000014074020020D00200207047704766
:10135000F8B5054604464035287F002696468C465B
:1013600001280CD001272F77687F616801280CD0F5
:10137000CA1FFD3A07D1A168002904D101E002206B
:10138000F8BD042801D00226ADE06046002827D031
:101390007046002824D0002B22D0687F042801D07A
:1013A00005206877002020666146A163A387E38754
:1013B00071462164AB80EB80E06420652068416861
:1013C000032252039143416007210123E06809028F
:1013D0001B0388422068416804D9994341602BE08F
:1013E000012680E019434160606D8169012080021F
:1013F00081420BD1A08F3E49C0072068426834D09B
:101400000A434260E08F4008401CE087A06D81697C
:101410000120800281420FD12068416899434160D8
:10142000E8883449C0072068426823D00A434260F4
:10143000E8884008401CE880687F04281FD0A16D20
:101440002D4808632D48A16DC862A16D2C484863E2
:10145000A16D00208863EB882168226C0C31A06D9F
:10146000FFF7D2F8002825D10EE08A434260E08FD2
:101470004008CAE78A434260E8884008DBE7A16D7C
:10148000204808632048DEE720684168394341600E
:10149000616D00200863616DC862616D4863616DB4
:1014A0008863E38F2268A16B0C32606DFFF7ACF8A4
:1014B000002806D0206E10210843206601266F7791
:1014C00011E020680168490603D4016840221143F5
:1014D0000160206841682022114341602068416812
:1014E000022211434160002028773046F8BD0000F9
:1014F0000040000000200000D51D00089F1E0008CD
:101500009F1D0008C11D0008DF1D0008F8B5054635
:1015100004464035287F0026012806D001272F7772
:10152000687F012803D0022669E00220F8BD002967
:101530004CD0002A4AD00320687700202066A1639F
:10154000A287E28720642065E064A880E880012308
:10155000DB03A1685A10994203D121680B68134339
:101560000B60636D28491963636D2849D962636D07
:1015700027495963616D88632068416891434160E0
:101580000721E0680902884210D8606D0121806956
:10159000890288420AD1E08FC0072068416817D0CD
:1015A00011434160E08F4008401CE087E38F2268D0
:1015B000A16B0C32606DFFF727F800280DD0206E6C
:1015C00010210843206601266F7718E0012616E0F7
:1015D00091434160E08F4008E7E7206801684906D1
:1015E00003D4016840221143016020684168202231
:1015F000114341602068416802221143416000208C
:1016000028773046F8BD0000CB1D0008371E0008C3
:101610009F1D0008014955204870704700000020B8
:101620007047704770470000094910B5401E884256
:1016300001D9012010BD074C60610321081F00F093
:101640004BFE0020A06107202061002010BD00009B
:10165000FFFFFF0000E000E070477047704770B583
:10166000040005D025462035687F002802D006E01A
:10167000012070BD00202877204600F00BF80220E2
:101680006877211D206800F0E7FD012068770020C1
:1016900070BD000008B500681B4A1C4990420DD17E
:1016A0000A68C01302430A600968002201400091E1
:1016B00011461320FFF762F9132010E0144A9042FC
:1016C00010D10A680120400402430A600968002220
:1016D0000140009111461520FFF750F91520FFF742
:1016E00041F908BD0B4A9042FBD10A6801208004F1
:1016F00002430A6009680022014000911146162049
:10170000FFF73CF91620EAE70020004040100240B5
:1017100000440140004801400168CB6801221343A6
:10172000CB6001688868064B1840062805D0130472
:10173000984202D0086810430860002070470000FB
:10174000070001007047000070B504460068016999
:101750000025C9438907002915DBC168C9438907EA
:1017600011D4E91E0161012020772068806980077B
:10177000204602D0FFF7E6FF04E000F0A7F820467D
:1017800000F0A5F8257720680169C943490717D4F7
:10179000C168C943490713D40421C9430161022028
:1017A0002077206880698005800F204602D0FFF7EF
:1017B000C9FF04E000F08AF8204600F088F8257799
:1017C00020680169C943090716D4C168C9430907DC
:1017D00012D40821C9430161042020772068C06920
:1017E0008007204602D0FFF7ADFF04E000F06EF85E
:1017F000204600F06CF8257720680169C943C906C6
:1018000017D4C168C943C90613D41021C943016163
:10181000082020772068C0698005800F204602D00C
:10182000FFF790FF04E000F051F8204600F04FF879
:10183000257720680169C943C90708D1C168C94330
:10184000C90704D1891E0161204600F041F82068D3
:101850000169C943090609D4C168C943090605D409
:101860008021C94301612046FFF7F7FE2068016926
:10187000C943C90508D4C168C943090604D412493B
:1018800001612046FFF7E8FE20680169C943490667
:1018900009D4C168C943490605D44021C94301613F
:1018A000204600F016F820680169C943890609D46A
:1018B000C168C943890605D42021C9430161204676
:1018C000FFF7CCFE70BD0000FFFEFFFF70477047C2
:1018D00070477047FEE7000030B585B014216846B8
:1018E000FEF77AFC0120019001240020074DE4035B
:1018F0000290009469462846FEF730FF01222146F7
:101900002846FEF7C5FF05B030BD0000000C0050B2
:1019100070B50020094A0346861E01011468401C68
:1019200063500C1D15680C312B511568241D2B516B
:101930001468C0B266500828EFD370BD04000020C0
:10194000F0B50226124D00210A0110462B6808301E
:101950001C58A41C06D1141D1F597F1C1F512C6834
:10196000002323502B6817461C580C37641C1C504E
:101970002B68DF59A74205D20124121D9C502B6809
:1019800000221A50491CC9B2B142DDD3F0BD00009B
:101990000400002008B51048816B012211438163C7
:1019A000806B10400022009011460920FEF7E6FFF0
:1019B0000920FEF7D7FF002211460A20FEF7DEFFBE
:1019C0000A20FEF7CFFF002211460B20FEF7D6FFBC
:1019D0000B20FEF7C7FF08BD0010024000B587B01E
:1019E00014216846FEF7F8FB0F48426B02210A43B8
:1019F0004263426B0A400592426B04210A434263F0
:101A0000426B0A400592416B012211434163416BD5
:101A100011400591426B20210A434263406B08400C
:101A2000059007B000BD00000010024010B511483D
:101A30000F490160FF2105314160002107228160CB
:101A400012020161C260012241615202826101629F
:101A500038224162C26181620722C26201630821A9
:101A60004163FFF744FB002801D0FEF705FD10BDE0
:101A700000300140F400002010B511480F4901600A
:101A8000FF210531416000210722816012020161BE
:101A9000C2600122416152028261016238224162C8
:101AA000C26181620722C262016308214163FFF7BC
:101AB0001EFB002801D0FEF7DFFC10BD00380040FF
:101AC00058010020704770B500252846B030C0B2DC
:101AD000002100F003FB0021084600F0FFFA00217E
:101AE000102000F0FBFA00240121002000F0F6FA9B
:101AF000641CE4B2802CF7D36D1CEDB2082DE4D346
:101B000070BD10B50446B031C8B200F005FB200925
:101B1000103000F001FB2007000F00F0FDFA10BDAF
:101B2000F0B585B014216846FEF756FB07277F0302
:101B3000012600250324694628480097019602954E
:101B40000394FEF70BFE002239462448FEF7A0FE60
:101B5000234F69463846019602950094FEF7FEFD34
:101B6000002201213846FEF793FE00946946B8042E
:101B7000019602950394FEF7F1FD00220121B804BD
:101B8000FEF786FE01220221B804FEF781FE154809
:101B9000154F009069460196029503943846FEF76A
:101BA000DDFD012211463846FEF772FE0122510387
:101BB0003846FEF76DFE7602002231463846FEF7C3
:101BC00067FE022002900520694600960195039465
:101BD0000007FEF7C3FD05B0F0BD0000000800508F
:101BE00000140050012200000004005070B50122D2
:101BF000474D540221462846FEF74AFE642000F075
:101C00008DFB002221462846FEF742FE642000F0AC
:101C100085FB012221462846FEF73AFE3D49012078
:101C200088620021AE2000F059FA0021084600F039
:101C300055FA0021102000F051FA0021402000F058
:101C40004DFA0021812000F049FA0021FF2000F028
:101C500045FA0021A12000F041FA0021C82000F03F
:101C60003DFA0021A62000F039FA0021A82000F05A
:101C700035FA00213F2000F031FA0021D32000F096
:101C80002DFA0021084600F029FA0021D52000F0A5
:101C900025FA0021802000F021FA0021D92000F04F
:101CA0001DFA0021F12000F019FA0021DA2000F0DD
:101CB00015FA0021122000F011FA0021DB2000F0BB
:101CC0000DFA0021402000F009FA0021202000F048
:101CD00005FA0021022000F001FA00218D2000F019
:101CE000FDF90021142000F0F9F90021A42000F0F2
:101CF000F5F90021A62000F0F1F90021AF2000F055
:101D0000EDF9FFF7E0FE00210846FFF7FAFE70BD8F
:101D10000004005000140050F8B51D4D2878A82884
:101D200029D254282CD008DC00280DD015280DD03D
:101D30002A2821D03F280DD120E0692822D07E28F2
:101D400022D0932806D121E0002100E001210020CB
:101D5000FFF7D7FE0F4E104F00242878305CC000EC
:101D6000C019005D00F0F2F9641CE4B2062CF4D353
:101D70002878401C2870F8BD0221E8E70321E6E737
:101D80000421E4E70521E2E70621E0E70721DEE799
:101D9000180000207C030020E8250008704710B5DB
:101DA000806A01684A68920892004A60016E1022B7
:101DB0001143016601225D210A54FFF797F910BD16
:101DC00010B5806AFFF7C3FA10BD10B5806AFFF73F
:101DD00027FC10BD10B5806AFFF724FC10BD70B55C
:101DE0000546846AFEF75AFD0246286800688006A8
:101DF0001DD4206841682025A943416020684168BE
:101E00008908890041606421204600F077F80028A5
:101E100000D02566002120464030C1800121417755
:101E2000206E002803D02046FFF760F970BD2046E1
:101E3000FFF78CFA70BD38B50546846AFEF72EFDB3
:101E4000024628680068800625D42068416820255D
:101E5000A94341602068416802239943416064219D
:101E6000204600F087F8002802D0206E2843206624
:101E7000A0680021002803D12068C2688068009013
:101E8000E18701215D200155206E002803D0204606
:101E9000FFF72CF938BD2046FFF7BCFB38BD70B505
:101EA0000546846AFEF7FAFC024628680068800648
:101EB00020D4206841682025A94341606421204640
:101EC00000F058F8002802D0206E284320662068D1
:101ED00041688908890041600021E187204640303F
:101EE000C18001214177206E002803D02046FFF7F2
:101EF000FDF870BD2046FFF794FB70BDF7B50446B2
:101F00004068FF26053682B01546B0420CD101214B
:101F1000A068C903884202D04911884204D12068D0
:101F200001684022914301600095002280212046F3
:101F3000039B00F08DF82027002813D16068B04281
:101F400016D1A068B902884202D0491188420FD147
:101F500003210095002249022046039B00F030F83F
:101F6000002805D0206E38432066032005B0F0BD60
:101F70000020FBE7F8B50F460B46154600920321FB
:101F800004460022C90200F01BF82026002812D1C6
:101F90003B46002280212046009500F059F8002899
:101FA00009D103213B46002249022046009500F05A
:101FB00007F8002803D0206E304320660320F8BDC8
:101FC000F8B51D4616460F46044610E003214902A7
:101FD0008F4202D1002E00D1007B681C07D0FEF793
:101FE0005DFC0699401AA84208D2002D06D0206850
:101FF00081683940B142E9D10020F8BD20684168CC
:10200000E022914341606068C11FFD390CD101217C
:10201000A068C903884202D04911884204D12068CF
:1020200001684022914301600121A06A490388426E
:1020300007D1206802688A430260206802680A4368
:102040000260012040346077002020770320F8BD33
:10205000F8B51D4617460E46044609E0681C07D031
:10206000FEF71CFC0699401AA8420BD2002D09D09D
:1020700020688168304688432ED00020B842EDD1D8
:102080000020F8BD20684168E0229143416060680B
:10209000C11FFD390CD10121A068C903884202D0BB
:1020A0004911884204D120680168402291430160AF
:1020B0000121A06A4903884207D1206802688A4347
:1020C0000260206802680A430260012040346077A1
:1020D000002020770320F8BD0120CFE770B5012450
:1020E0000022E4030B4B002901D09C6100E09C62BC
:1020F000012189034D109D62060601D5996100E01A
:1021000099629D614006521C000ED2B2082AF2D399
:102110009C6170BD0008005070B501260A4AF603A4
:1021200096620021741065109562030601D59461D2
:1021300000E0946295614006491C000EC9B208296E
:10214000F2D3966170BD00000008005030B5012444
:102150000021A403074A63109362050601D5946128
:1021600000E0946293614006491C000EC9B2082940
:10217000F2D330BD00080050704710B5FEF794FB55
:1021800000F00CFAFFF7DCFB10BD10B598B034215D
:102190006846FEF721F800240D940E940F94182140
:1021A00011A81094FEF718F801204002FEF7EAFB90
:1021B00002200090C00103904020059004940794F1
:1021C0006846FEF7A7FD07200D900E940F9400219E
:1021D00010940DA8FEF7ACFC01201190129411A8E8
:1021E000FEF7F6FB18B010BD01200249C00688605A
:1021F0007047000000ED00E010B50248FFF7A4FAB8
:1022000010BD00003400002010B50248FFF79CFA12
:1022100010BD00007400002010B50248FFF794FACA
:1022200010BD0000B400002070B50020094A03462C
:10223000861E01011468401C63500C1D15680C318A
:102240002B511568241D2B511468C0B266500C2800
:10225000EFD370BD0C00002070B50268184C194E09
:10226000A04201D0B04204D1134670254A68AB4366
:102270001A43154B154DA04208D0B04206D0144E5B
:10228000B04203D0984201D0A84204D103263602BE
:10229000B243CE6832438026B2434E693243026075
:1022A0008A68C2620A688262A04203D0984201D062
:1022B000A84201D1096901630121416170BD00009B
:1022C000002C01400004004000440140004801404F
:1022D00000200040704770478307FF22DB0E9A40C2
:1022E0008907090E9940002808DB830809489B00EC
:1022F0001818036893430B43036070470007000FEF
:102300000838830804489B001818C36993430B439B
:10231000C361704700E400E000ED00E010B500226A
:102320007D24E40103E02146491EFDD2521C824275
:10233000F9DB10BD03480178042901D9002101709F
:10234000704700000200002086B0FEF7B5FAFFF7E4
:102350001CFFFFF743FB7B497B48002782C00760D7
:102360004760876007610838FFF779F97648774951
:10237000403082C0076047608760C76007610838E7
:10238000FFF76DF97048724C803090C0076047606D
:102390008760C76007610838FFF761F96A488030D5
:1023A000FFF7BAF96B48E062FFF7F4FAFFF73EFB7C
:1023B000FFF762FBFEF776F8FFF718FCFFF734FF34
:1023C000FFF7A6FAFF206449F530644AC860D06080
:1023D000634A0120D060634B00201F54401CC0B2F0
:1023E000A828FAD360A061C8694661C100205D4B8E
:1023F0001854401CC0B25F28F9D35E4854230770BC
:1024000058488030C374492303754D2343754523D1
:1024100083751A23C375FFF78DFF4F4C6068012841
:1024200011D12068012813D0052501222D0711465E
:102430002846FEF72DFA012202212846FEF728FA47
:102440000120206067604648416801290ED014E0F1
:1024500005252D07002201212846FEF719FA002242
:1024600002212846FEF714FA2760EBE747608760F1
:1024700041480178802900D90770FFF74DFC3449A5
:10248000486A3E4D3E4E28603268824200D230603B
:102490004F62324840680128BDD1002421460A20FD
:1024A00000F072F801462868FDF798FE002803D076
:1024B000641CE4B2092CF1D3002513E0601B401E1C
:1024C000C1B20A2000F060F801463068FDF786FED0
:1024D0000A21FDF783FE23481031401980306D1C1E
:1024E0000176EDB2A542E9D33760234E55207070D6
:1024F00015480A2303AA6946C030FEF729FF0A22BD
:1025000069462048FFF702F8002513E00220401B2F
:10251000C1B20A2000F038F801467078FDF75EFE7F
:102520000A21FDF75BFE0F4810314019A0306D1CE9
:102530008170EDB2A542E9D30848932147600D4868
:10254000017068E700200040340000200044014092
:1025500000480140FFFF00005C0300206C030020E6
:102560004C0300207C0300205050555550505555C9
:102570005055000018000020000000201C00002022
:1025800020000020580100200346012000E05843AD
:102590000A46491EC9B2002AF9D17047F0B5032690
:1025A000104D002001010A462B6808329C58A41CDB
:1025B00006D10C1D1F597F1C1F512C680023A350EE
:1025C0002C68A3585B1CA3500C462A680C34145981
:1025D0009C4202D20123091D5350401CC0B2B0429C
:1025E000E0D3F0BD0C00002000000000000000005F
:1025F00000002F000000000000070007000000009E
:10260000147F147F14000000242A7F2A1200000087
:102610006264081323000000364955225000000070
:102620000005030000000000001C22410000000023
:102630000041221C0000000014083E0814000000A5
:1026400008083E08080000000000A060000000002C
:102650000808080808000000006060000000000092
:1026600020100804020000003E5149453E000000D1
:1026700000427F40000000004261514946000000D6
:102680002141454B310000001814127F100000005A
:1026900027454545390000003C4A494930000000C3
:1026A0000171090503000000364949493600000060
:1026B000064949291E0000000036360000000000CF
:1026C00000563600000000000814224100000000FF
:1026D0001414141414000000004122140800000017
:1026E0000201510906000000324959513E00000024
:1026F0007C1211127C0000007F494949360000001D
:102700003E414141220000007F4141221C00000067
:102710007F494949410000007F0909090100000083
:102720003E4149497A0000007F0808087F00000008
:1027300000417F41000000002040413F01000000B7
:102740007F081422410000007F404040400000000C
:102750007F020C027F0000007F0408107F00000051
:102760003E4141413E0000007F090909060000008A
:102770003E4151215E0000007F09192946000000FA
:10278000464949493100000001017F010100000074
:102790003F4040403F0000001F2040201F0000003D
:1027A0003F4038403F0000006314081463000000FD
:1027B0000708700807000000615149454300000008
:1027C000007F414100000000552A552A55000000B5
:1027D0000041417F000000000402010204000000EB
:1027E00040404040400000000001020400000000A2
:1027F00020545454780000007F48444438000000BE
:102800003844444420000000384444487F0000001D
:102810003854545418000000087E090102000000DA
:1028200018A4A4A47C0000007F0804047800000021
:1028300000447D40000000004080847D00000000D6
:102840007F1028440000000000417F40000000008D
:102850007C041804780000007C0804047800000060
:102860003844444438000000FC18242418000000B8
:1028700018242418FC0000007C0804040800000050
:102880004854545420000000043F444020000000FD
:102890003C4040207C0000001C2040201C00000028
:1028A0003C4030403C000000442810284400000018
:1028B0001CA0A0A07C0000004464544C4400000014
:1028C000000836410000000000007F00000000000A
:1028D000004136080000000008100804080000004D
:1028E00000000000000000000000000000000000E8
:1028F00000000000000000000000000000000000D8
:1029000001000000020000000300000004000000BD
:102910000600000007000000080000000900000099
:1029200040290008000000203400000004010008D5
:1029300074290008340000206C0A000020010008FF
:10294000000004005C0300206C0300202C03002026
:102950003C0300204C030020810000000000000028
:102960000000000004000000010000000000000062
:042970000024F4004B
:04000005080000C12E
:00000001FF
